:020000040800F2
:10000000A0E1012029B90008650B0008670B000872
:10001000690B00086B0B00086D0B00080000000066
:100020000000000000000000000000006F0B00084E
:10003000710B000800000000730B0008750B00082E
:1000400043B9000843B9000843B9000843B90008A0
:1000500043B9000843B90008790B000843B9000808
:1000600043B9000843B9000843B9000843B9000880
:1000700043B9000843B9000843B9000843B9000870
:1000800043B9000843B9000843B9000843B9000860
:1000900043B9000843B9000843B9000843B9000850
:1000A00043B9000843B9000843B9000843B9000840
:1000B00043B9000843B900089D09000843B9000886
:1000C00043B9000843B9000843B9000843B9000820
:1000D00043B90008630900086D09000843B9000826
:1000E00043B9000843B9000843B9000843B9000800
:1000F00043B9000843B9000843B9000843B90008F0
:1001000043B9000843B9000843B9000843B90008DF
:1001100043B9000843B9000843B9000843B90008CF
:1001200043B9000843B9000843B9000843B90008BF
:1001300043B9000843B9000843B9000843B90008AF
:1001400043B9000843B9000843B9000843B900089F
:1001500043B9000843B9000843B9000843B900088F
:1001600043B9000843B9000843B9000843B900087F
:1001700043B9000843B9000843B9000843B900086F
:1001800043B9000843B90008DFF80CD00BF0E2FED9
:100190000048004749050008A0E10120FE49CA685F
:1001A00010444861CA689042FCD870472DE9F0417C
:1001B0000546F94C6581290A0E2001F0BCFC002699
:1001C0002661F64F0021384604F068FD03E038460A
:1001D00004F068FD206120696428F8D30120FFF74E
:1001E000DDFFE9B20F2001F0A6FC266100213846B0
:1001F00004F054FD03E0384604F054FD206120690A
:100200006428F8D3BDE8F0410120C7E710B501210B
:10021000E34803F035FFE04AD16919B1012908D05C
:1002200090B113E018B10120D061D0689061002036
:1002300010BD38B1D1689369C91A282902D30221A7
:10024000D16110BD002010BD0020D061002010BD84
:100250002DE9F04391B00121082004F088F8012134
:10026000042004F0A8F80121172004F080F80121EF
:10027000480404F0A0F80121102004F0A8F801219E
:10028000CF03384604F097F801258DF840504FF41D
:1002900070400F9003268DF8416000248DF8434094
:1002A000DFF800830FA9404603F096FE8DF840501A
:1002B0004FF680700F908DF841608DF843400FA984
:1002C000B94803F089FE07220521404603F0FCFEF1
:1002D00007220621404603F0F7FEDFF8D0920722FE
:1002E0000621484603F0F0FE07221146484603F077
:1002F000EBFE60200F9002208DF840008DF8424008
:100300008DF841608DF843500FA9404603F064FE1C
:10031000C0200F9002208DF840008DF842408DF8EB
:1003200041608DF843500FA9484603F055FEADF8E3
:100330001C4041F28830ADF81400ADF816404FF67D
:10034000FF7006908DF81E40944E05A9304604F0CB
:1003500063FC0121304604F0DDFC0121304605F04C
:1003600050F80021304604F099FC01221146304635
:1003700005F025F84FF416500990ADF82A40ADF875
:100380002C40ADF830400C26ADF82E60ADF828407A
:10039000DFF81C9209A9484602F050FF40F22558A8
:1003A00001224146484603F075F80121484602F013
:1003B000BEFF4FF4E1300990ADF82A40ADF82C4073
:1003C000ADF83040ADF82E60ADF82840794E09A95F
:1003D000304602F033FF01224146304603F05AF81E
:1003E0000121304602F0A3FF4FF4E0500D900220AF
:1003F0008DF838008DF83A408DF839008DF83B4083
:100400006D4E0DA9304603F0E7FD06220A21304665
:1004100003F05AFE06220B21304603F055FE062259
:100420000C21304603F050FE0D978DF838508DF8B2
:100430003A4002208DF839008DF83B50584E0DA9F6
:10044000304603F0C9FD3946304603F02DFEADF8C5
:1004500000404FF48270ADF80200ADF80440ADF8F2
:100460000640ADF808404FF44070ADF80A0008208F
:10047000ADF80C00ADF80E40504E6946304604F021
:10048000A1F90121304604F035FA26208DF820002C
:1004900002208DF821008DF822408DF8235008A805
:1004A00003F057F83C48807801280CD125208DF8BE
:1004B000200002208DF821008DF822408DF8235075
:1004C00008A803F046F81E208DF8200003208DF8C0
:1004D00021008DF822408DF8235008A803F039F848
:1004E00011B0BDE8F08310B501F046FF002002F026
:1004F000ABF8002002F03FF84FF6FF74204602F000
:1005000033F802F040F82EA1002002F0E5F802F0E6
:100510003AF8C08830A102F0DFF802F034F8C08861
:1005200033A104EA400002F0D7F802F02CF8C088AA
:1005300035A100EB400080B202F0CEF80121BDE809
:100540001040002002F044BC08B514200CF06AFAF8
:100550000C200CF067FADFF84080C8F820000C206F
:100560000CF060FA04460C200CF05CFA0027FFF750
:100570006FFEFFF7B8FF00F0B6FE00F049FC01F097
:1005800086FBFFF765FEDFF81CB04FF4804158464C
:1005900003F096FD082043E0000000200008004022
:1005A00000000240000C0240001002400004024023
:1005B000004400400010014000080240003C0040A0
:1005C000202020202053544D3332463478372020C9
:1005D0002020202000000000202053544D333246BC
:1005E0002D342053657269657320202000000000BF
:1005F00020544350206563686F636C69656E742096
:1006000044656D6F00000000202020202020202065
:10061000202020202020202020202020000000005A
:1006200001F04FFA88F80800092001F04AFA88F82A
:1006300004000A2001F045FA88F805000B2001F0BB
:1006400040FA88F806000C2001F03BFA88F8070011
:100650000D2001F036FA88F803000F2001F031FA7E
:1006600005460E2001F02DFA45EA0020A8F80A0000
:10067000DFF858A30021504604F010FB4FF6E8596C
:10068000002605F0E0FC08B100F0DFFBD8F80C0014
:1006900000F0C0FC504604F005FBC8F810004845C7
:1006A00007D337B900F072FB0127F903584603F06E
:1006B00007FDFFF7ABFD30B100F068FB0127F90340
:1006C000584603F0FDFC98F801000C2804D3D8F834
:1006D0002000407888F8000000F060FA90B100F047
:1006E00063FA014620460BF089F900F065FA0090A4
:1006F00000F051FA607888F8000000F058FA002005
:1007000000F04FFA217898F80800814204D0D8F818
:10071000201009788142B4D198F800000028B0D0A8
:10072000012811D0052822D0062832D0022876D000
:10073000072870D009286FD00A286ED004286DD001
:100740000B289ED10025EBE098F801000C2808D377
:10075000D8F8200000F094FE88F8000088F80160C6
:100760008FE7009800F08CFE88F8000089E74FF4CE
:100770000051584603F0A4FC01F094FB054600F03C
:1007800007FA01231422294609F0E5F888F80060E9
:1007900077E7A079012811D0D8F8201089790129AC
:1007A0000CD002280ED002290CD003280ED0032929
:1007B0000CD004280ED004290CD00EE0002000F04C
:1007C000EFFD0AE0012000F0EBFD06E0022000F062
:1007D000E7FD02E0032000F0E3FD00F075FF0546B1
:1007E00000F0D6F901230C22294609F0B4F841F2B1
:1007F0008830FFF7D3FC002000F0EEFD012000F070
:10080000EBFD022000F0E8FD032000F0E5FD88F894
:10081000006036E703E011E01DE035E061E000989C
:1008200000F098FF0820607000F0B2F901230C225C
:10083000214609F090F888F8006022E70020FFF7D1
:10084000B5FC00F0A5F901230C22214609F083F83C
:1008500088F8006015E798F80400A07098F8050083
:10086000E07098F80600207198F80700607198F819
:100870000300A07100F08CF901230C22214609F03D
:100880006AF888F80060FCE6A178092001F053F9C5
:100890000A20FFF783FCE1780A2001F04CF90A20D6
:1008A000FFF77CFC21790B2001F045F90A20FFF7C6
:1008B00075FC61790C2001F03EF90A20FFF76EFC0F
:1008C000A1790D2001F037F90A20FFF767FCE179E3
:1008D000082001F030F90A20FFF760FC88F800607A
:1008E000CFE688F80060CCE604200CF09BF82846A0
:1008F00001F042F898F8081021700B21617001781E
:10090000A1704178E17081782171C078607100F048
:100910003FF901230C22214609F01DF86D1CEDB2B0
:10092000B8F80A008542DFD388F80060A9E62848B5
:10093000C07870472648007970472548407970474D
:100940002348807970472248C079704710B50F203E
:1009500001F0B7F804460E2001F0B3F844EA002095
:1009600010BD40F225511B4802F0BABD10B51A4C1B
:1009700040F22551204602F0B3FD00280DD0A1140D
:10098000164803F09DFB204602F001FD10494B780C
:100990000A6AD0544878401C487010BD10B50B4C02
:1009A0000121204604F021FD002809D008480169F2
:1009B000491C01612046BDE81040012104F021BD21
:1009C00010BD0348C1680A31C1607047000800408B
:1009D000000000200010014000440040000C0240D4
:1009E0000CB50022019200925549086840F480300D
:1009F00008604FF4A043086800F4003000900198AC
:100A0000401C0190009810B901989842F3D10868F1
:100A1000800302D50120009000E000920098012898
:100A200031D147484030026842F080520260454868
:100A3000026842F4404202604148083002680260A5
:100A4000026842F400420260026842F4A05202606E
:100A5000021F3D4B13600A6842F080720A600A6808
:100A60009201FCD5394A40F205611160016821F01C
:100A700003010160016841F0020101600168C1F3F6
:100A800081010229FAD10CBD10B52D48016841F051
:100A9000010101602A4A00210832116002682C4BD2
:100AA0001A400260031D2B4A1A60026822F4802259
:100AB000026023480C300160FFF792FF26494FF097
:100AC0000060086010BD70B51D4E0836306800F03B
:100AD0000C00224B224900280FD05D1004280ED0B4
:100AE00008280ED00B6030681D4AC0F30310121D99
:100AF000105C0A68C2400A6070BD0B60F3E70D60CD
:100B0000F1E70F4A121D1068C0F38054106800F01E
:100B10003F0034B1B5FBF0F01368C3F388135843BA
:100B200005E0B3FBF0F01368C3F388135843126871
:100B3000C2F30142521C5200B0FBF2F00860D2E74F
:100B4000003802400070004008484006003C024067
:100B5000FFFFF6FE1030002408ED00E00024F40052
:100B6000240000207047FEE7FEE7FEE7FEE770473F
:100B700070477047FFF725BF10B5012002F043FF13
:100B8000002804D0BDE81040012002F04ABF10BD8B
:100B90009148806870479048006970478E48407857
:100BA00070478D49487070478B48C06870478A49C4
:100BB0000020C9680870704787484069704770B561
:100BC00005460C460021284607F0EAFD002128468C
:100BD00007F0E9FD00221146284607F0ECFD14B1AC
:100BE000204606F084FC2846BDE8704007F0C0BAF5
:100BF0002DE9F04107460E4600247748876013E050
:100C000001233846696808F0A6FE044614B1601C4A
:100C10000AD108E02868B06008B106F07DFF2846D8
:100C200006F058FE00E0B560002C07D1B568002D35
:100C300004D06A89B7F86E008242E1D9BDE8F0813C
:100C400010B502460846644B9860114600290BD047
:100C50008A6812B1FFF7CCFF04E00A78032A01D1B9
:100C6000FFF7ADFF002010BD012107F073FB6FF00F
:100C7000040010BD10B502460846574B9860114657
:100C80008A68002A01D0FFF7B3FF002010BD70B5BD
:100C90000546084614461E464F4A90602946656838
:100CA0005561D5601561A37A537000231370002C31
:100CB00005D066B1204606F00DFE304670BD032219
:100CC0000A708A680AB1FFF793FF002070BD0978A7
:100CD000012907D0218907F0CCFA204606F0FAFD59
:100CE000002070BD5168491C5160218907F0C1FA8C
:100CF000204606F0EFFD002070BD2DE9F0410D46C5
:100D000016460021344FBD60002E04D02846FFF760
:100D100056FF304692E70C2006F05EFC04462000A9
:100D20002DD00120207065607A682CA133480BF02B
:100D3000F7F932480AF040FE81B20322002006F0A3
:100D4000F2FDA0600028E4D02C480AF035FE82B203
:100D50002A49A06806F098FF2146284607F01EFDA4
:100D60002749284607F01CFD2649284607F01BFDA9
:100D700001222549284607F01EFD00205EE7214696
:100D80002846FFF71CFF4FF0FF3057E738B5124CED
:100D9000207800281FD107F0FFFCA06100281AD09E
:100DA00001202070FFF7C6FD0506FFF7C6FD45EAE6
:100DB0000045FFF7C5FD45EA0025FFF7C4FD2843C0
:100DC00009F09EFC0090FFF7B2FD02460F4B69460A
:100DD000A06907F0F4FB38BD3800002073656E642D
:100DE000696E672074637020636C69656E74206D32
:100DF000657373616765202564000000840100202D
:100E00008F0C0008750C0008410C0008FB0C000852
:100E100000B587B006F055FB06F04AFC00200690AE
:100E2000059004909649974ACDE90121009004ABC2
:100E300005AA06A9944806F0CDFC934806F0EDFCFF
:100E4000914806F025FD07B000BD8F4805F0C9BBED
:100E500070B58CB08D4C01264FF6FF7520780028B8
:100E600054D0012850D188494868E060002870D0EB
:100E700002202070084606F01EF9E068010E8DF889
:100E80002010C0F307448DF82140C0F307238DF8EC
:100E90002230C2B28DF82320CDE900417CA103A805
:100EA0000BF03EF901F06FFBC08805EA800001F00D
:100EB000B8FB01F068FBC08800EB800080B201F055
:100EC000B0FB01F060FBC08800EB400005EA400089
:100ED00001F0A7FB01F057FBC08871A1C0EBC00077
:100EE00080B201F0F9FB01F04EFBC08872A105EA67
:100EF000C00001F0F1FB01F046FBC08803A900EB44
:100F0000C00080B201F0E8FB0CB070BD5E4806F096
:100F10009EF90020E060267001F035FBC0886CA1CE
:100F200005EA800001F0D8FB01F02DFBC0886EA11E
:100F300000EB800080B201F0CFFB01F024FBC08801
:100F40006FA100EB400005EA400001F0C5FBDBE7C4
:100F5000FFE7086AC07C0428D6D9032020704A48DD
:100F600006F0A9F86C4809F0CBFB0B906FF0FF007E
:100F700009F0C6FB0A906848C73809F0C1FB099020
:100F800009AB0AAA0BA9404806F014FC01F0FBFAD1
:100F9000C08862A1C0EBC00080B201F09DFBC820F8
:100FA0008DF820008DF82160A8238DF82230C02212
:100FB0008DF82320CDE900605EA103A80BF0B0F806
:100FC00001F0E1FAC08805EA800001F02AFB01F097
:100FD000DAFAC08800EB800080B201F022FB01F059
:100FE000D2FAC08800EB400005EA400001F019FB8E
:100FF00001F0C9FAC08853A105EAC00001F06CFBFA
:1010000001F0C1FAC08803A900EBC00080B201F072
:1010100063FB79E731B51D4C00986168401AFA28E6
:1010200003D30098606007F088F90098A168401A1F
:1010300041F28831884203D30098A0600AF001F998
:1010400000982169401AB0F5FA7F0AD30098206110
:1010500005F09CFF2078022803D0032801D0FFF779
:10106000F7FE00986169401A4EF66021884205D368
:1010700000986061BDE8384005F0FDBD38BD000056
:10108000C5B800080D660008E801002054000020E3
:101090002025642E25642E25642E25640000000082
:1010A000495020616464726573732061737369676A
:1010B0006E656420000000002020627920612044D9
:1010C000484350207365727665722020000000004E
:1010D00020202020204C6F6F6B696E6720666F7236
:1010E0002020202000000000202020202044484311
:1010F0005020736572766572202020200000000069
:101100002020202020706C656173652077616974F0
:101110002E2E2E2000000000C801A8C02020202074
:10112000444843502074696D656F757420202020F9
:1011300000000000202025642E25642E25642E2525
:1011400064000000202053746174696320495020BA
:1011500061646472657373202020000000B5AFB035
:1011600001214FF0606003F002F904F0E3FB05F0A9
:101170005AF805F05EF80128FBD0684604F0E6FB5B
:1011800001200090002007904FF400710A910B900D
:101190000E90119013901490159049000991209091
:1011A000C90321910A1123922590269004202890AA
:1011B000299180032A9080012B9040122C904000AE
:1011C0002E900121684604F05EFC654908602FB04E
:1011D00000BDFEB50121072003F0C9F801218803F5
:1011E00003F0F5F8012003F0ABFA8620009003200D
:1011F0008DF8050002248DF8044000258DF8065076
:101200008DF80750574E6946304602F0E5FE0B2236
:101210000121304602F058FF0B220221304602F035
:1012200053FF0B220721304602F04EFF4FF470505F
:1012300000904D4E6946304602F0CEFE0B220A2148
:10124000304602F041FF0B221146304602F03CFFCF
:101250000B220C21304602F037FF0B220D213046C5
:1012600002F032FF32200090404E6946304602F0D4
:10127000B3FE0B220121304602F026FF0B2204218F
:10128000304602F021FF0B220521304602F01CFF00
:101290000420009001208DF804008DF806508DF890
:1012A00007008DF80540324E6946304602F094FE44
:1012B0000421304602F0FAFE029544F6206402E072
:1012C0000299491C02910299A142F9D304213046A6
:1012D00002F0EAFE029502E00298401C0290029899
:1012E000A042F9D3FEBD1FB5FFF773FFFFF736FF2E
:1012F0001B480068D0B1042002F06FF9684602F084
:10130000CBFF01986421B0FBF1F0B0F1807F0CD2EB
:1013100020F07F414FF0E020491E4161154AF02145
:10132000117000218161072101611FBD4FF47840D8
:1013300001F01AF901F027F9C0880FA100EB800035
:1013400080B201F0C9F901F01EF9C0884FF6FF71B3
:1013500000EB400001EA40000CA101F0BDF9FEE7FE
:101360006C0000200000024000040240000802401F
:101370000010024023ED00E02020204574686572D3
:101380006E657420496E6974202020002020202082
:1013900020206661696C65642020202020200000E8
:1013A000FA4A002809D001280BD002280ED00328C1
:1013B00011D11115104602F077BE8021104602F0BF
:1013C00073BE4FF48071104602F06EBE4FF4007190
:1013D000104602F069BE7047EC4A002809D0012887
:1013E0000BD002280ED0032811D11115104602F09F
:1013F0005DBE8021104602F059BE4FF48071104648
:1014000002F054BE4FF40071104602F04FBE704718
:1014100070B5DF4D4FF480542146284602F03AFE65
:10142000012805D021462846BDE8704002F03CBEA8
:1014300021462846BDE8704002F038BE10B504468B
:1014400005200AF054FED4F8091001600021017152
:1014500010BD10B504460C200AF049FE54F8111FC7
:10146000016061684160A16881600021C17210BDA6
:1014700010B5044601200AF03AFE217F017010BD2C
:101480002DE9F04F89B083464FF0010800260C206B
:101490000AF02DFEFFF75AFA0746BE4900200870F1
:1014A00001F10C0A9BE05D460124684600F0F0FB68
:1014B000B8480D2269460C300AF048FA06EB860956
:1014C000142000EB490080B200F0FBFA8DF81C00FC
:1014D000152000EB490080B200F0F3FA8DF81D00F2
:1014E000162000EB490080B200F0EBFA8DF81E00E8
:1014F000172000EB490080B200F0E3FA8DF81F00DE
:10150000182000EB490080B200F0DBFA8DF82000D3
:10151000192000EB490080B200F0D3FA8DF82100C9
:101520001A2000EB490080B200F0CBFA06901B2095
:1015300000EB490080B200F0C4FA04901C2000EBDC
:10154000490080B200F0BDFA05901D2000EB490073
:1015500080B200F0B6FA81469AF80C009DF821108E
:10156000C140C80700D100249DF82000A979C840D7
:10157000C00700D1002400208DF82000AD1C2846B3
:1015800007A90AF007FA10B14FF0000805E0284655
:1015900007A90AF0FFF900B900249AF804009AF8A4
:1015A000051000EB800001EB4000C0B29AF8021079
:1015B0009AF8032001EB810102EB4101C9B2069ABE
:1015C000824207D8059A904204D80498884201D8EC
:1015D000494500D90024012C08D0761CB6B2BE4281
:1015E000FFF461AFB8F1010F0DD06BE00620687019
:1015F000002068492A5C0A54401C0C28FADB0620AB
:1016000009B0BDE8F08F7F1CBEB206EB8604142043
:1016100000EB44001BF8021F80B200F08CFA5E4D14
:1016200000272F60DFF874810021404603F036FB6D
:1016300003E0404603F036FB286028686428F8D3AE
:10164000152000EB44001BF8011F80B200F073FA74
:101650002F600021404603F021FB03E0404603F0E9
:1016600021FB286028686428F8D3162000EB44008A
:101670001BF8011F80B200F05EFA2F600021404687
:1016800003F00CFB03E0404603F00CFB28602868E5
:101690006428F8D3172000EB44009BF8011080B2B7
:1016A00000F049FA2F600021404603F0F7FA03E00A
:1016B000404603F0F7FA286028686428F8D33046DB
:1016C000FEF774FD00209BE7324870472DE9FC4788
:1016D0000546FFF73BF907460026E94613E00024DC
:1016E00006EB860804EB4800103080B200F0E9F900
:1016F00009F80400641C082CF4DB294668460AF04B
:1017000062F928B1761CBE42E9DDDFF88CA01DE04D
:101710003546FAE700240026681C05EB850800EB37
:10172000800904EB4900103080B200F0CAF901468C
:1017300004EB4800103080B200F0FDF9CAF80060F8
:10174000642EFDD3641C172CEBDB6D1CBD42E1DB6A
:10175000BDE8FC872DE9F0470646FFF7F7F8074696
:10176000B61C07EB8704142000EB4400317880B2EC
:1017700000F0E1F9084D4FF00008C5F80080DFF8EF
:101780001C900021484603F089FA0DE00010024049
:10179000000C024020020020100000200008004041
:1017A000484603F07FFA286028686428F8D3761C3E
:1017B000152000EB4400317880B200F0BCF9C5F888
:1017C00000800021484603F069FA03E0484603F030
:1017D00069FA286028686428F8D3761C162000EB84
:1017E0004400317880B200F0A6F9C5F800800021ED
:1017F000484603F053FA03E0484603F053FA2860E2
:1018000028686428F8D3761C172000EB4400317850
:1018100080B200F090F9C5F800800021484603F03E
:101820003DFA03E0484603F03DFA28602868642842
:10183000F8D3761C182000EB4400317880B200F019
:101840007AF9C5F800800021484603F027FA03E042
:10185000484603F027FA286028686428F8D3761CE5
:10186000192000EB4400317880B200F064F9C5F82B
:1018700000800021484603F011FA03E0484603F0D7
:1018800011FA286028686428F8D3761C1A2000EB27
:101890004400317880B200F04EF9C5F80080002194
:1018A000484603F0FBF903E0484603F0FBF92860E3
:1018B00028686428F8D3761C1B2000EB440031789C
:1018C00080B200F038F9C5F800800021484603F0E6
:1018D000E5F903E0484603F0E5F928602868642844
:1018E000F8D3761C1C2000EB4400317880B200F065
:1018F00022F9C5F800800021484603F0CFF903E043
:10190000484603F0CFF9286028686428F8D31D20E2
:1019100000EB4400717880B200F00DF9C5F800804A
:101920000021484603F0BAF903E0484603F0BAF94B
:10193000286028686428F8D37F1CB8B2FEF736FC0C
:101940000120BDE8F087102000F0BBB870B501465B
:10195000102000F0F0F81B4C002020601A4D0021F0
:10196000284603F09BF903E0284603F09BF920602A
:1019700020683228F8D370BD70B5054604200AF0FF
:10198000B6FB044605EB8505142000EB450080B24C
:1019900000F097F82070152000EB450080B200F0B1
:1019A00090F86070162000EB450080B200F089F8D6
:1019B000A070172000EB450080B200F082F8E070C4
:1019C000204670BD100000200008004070B505469C
:1019D0008B4C0221204603F032F80028F9D029462A
:1019E000204602F0F9FF0121204603F028F80028E4
:1019F000F9D0204602F0EEFFC0B270BD2DE9F041F3
:101A000004460F467F4E4FF400452946304602F00B
:101A10004DFB7E2040EA4400C0B2FFF7D7FF3846B6
:101A2000FFF7D4FF29463046BDE8F04102F03CBB49
:101A300070B50446734E4FF400452946304602F017
:101A400035FB7E2000EA440040F08000FFF7BEFF37
:101A50000020FFF7BBFF04462946304602F024FB76
:101A6000204670BD70B5674D4FF4004421462846AE
:101A700002F01CFB0620FFF7A9FF21462846BDE81F
:101A8000704002F011BB70B55E4D4FF4004421462A
:101A9000284602F00BFB0520FFF798FF0020FFF718
:101AA00095FF06462146284602F0FEFA304670BDF4
:101AB00010B50446200AFFF789FFE0B2BDE81040E8
:101AC00084E770B506464F4D4FF400442146284642
:101AD00002F0ECFA0320FFF779FF3046FFF7E8FF4A
:101AE0000020FFF773FF06462146284602F0DCFA85
:101AF000304670BD70B50446424E4FF4004529464D
:101B0000304602F0D3FA0320FFF760FF2046FFF7CC
:101B1000CFFF0020FFF75AFF4FF6FF7101EA0024C4
:101B20000020FFF753FF204484B22946304602F0DC
:101B3000BBFA204670BD2DE9F04107460E46FFF77F
:101B400091FF304D4FF400442146284602F0AEFA92
:101B50000220FFF73BFF3846FFF7AAFF3046FFF7AA
:101B600035FF2146284602F09FFABDE8F0418AE79A
:101B70002DE9F04107460C46FFF774FF214E4FF464
:101B800000452946304602F091FA0220FFF71EFF79
:101B90003846FFF78DFF200AFFF718FFE0B2FFF786
:101BA00015FF2946304602F07FFABDE8F0416AE7AA
:101BB0002DE9F04100254FF40046124F47F6FF781B
:101BC000FFF750FF3146384602F070FA0220FFF767
:101BD000FDFE2846FFF76CFF00240020FFF7F6FE0D
:101BE000641CE4B2402CF8D33146384602F05CFA6B
:101BF0004035ADB2FFF747FF4545E1D3BDE8F08181
:101C0000003C0040000002407CB50121052002F0AC
:101C1000AEFB0121C80502F0CEFBC24D0422082113
:101C2000284602F051FAC04C04220921204602F055
:101C30004BFA01218DF806108DF8071002218DF85E
:101C40000410C901009103218DF80510694628464A
:101C500002F0C2F9611500916946204602F0BCF914
:101C6000B348B2490160002181804BF6FF72C28007
:101C700001812115418109018181AE4C0146204637
:101C800003F09CFC0121204603F0FFFC7CBDBBE778
:101C90002DE9F04387B08146002005900690A54DC0
:101CA0000121284603F01EFD0121284603F0F9FC1E
:101CB000A14C2846214603F0E3FD0028F9D000227C
:101CC000D021284603F005FD9C4E2846314603F0FE
:101CD000D7FD0028F9D00021284603F07AFD974E61
:101CE000B61C3146284603F0CBFD0028F9D001216F
:101CF000284603F0D6FC2146284603F0C1FD002803
:101D0000F9D00122D021284603F0E3FC8A4C641C60
:101D10002146284603F0B4FD0028F9D00024864E61
:101D200005AF3F364FF2FF783146284603F0A8FD55
:101D30000028F9D0284603F04EFD3855062C07D16F
:101D40004146284603F01FFD0021284603F0CAFC47
:101D5000641CE4B2082CE7D30121284603F0ADFC53
:101D6000774C2846214603F09EFD0028F9D19DF8C6
:101D7000140001098DF8041000F00F008DF8050023
:101D80009DF8150001098DF8061000F00F008DF880
:101D900007009DF81600C0F301118DF8081000F03F
:101DA0000F008DF809009DF8170000F007008DF86E
:101DB00010009DF81800C0F301118DF80A1000F012
:101DC0000F008DF80B009DF81900C0F300118DF87D
:101DD0000C1000F00F008DF80D009DF81A0001099D
:101DE0008DF80E1000F00F008DF80F000D2201A9E4
:101DF000484609F0ABFD07B0BDE8F0832DE9FC4192
:101E000050A003C8CDE900014A4E0121304603F03D
:101E100069FC0121304603F044FC474C3046214622
:101E200003F02EFD0028F9D00022D021304603F027
:101E300050FC424C3046214603F022FD0028F9D0E8
:101E40000021304603F0C5FC3C4FBF1C39463046EC
:101E500003F016FD0028F9D000246D463046295DB8
:101E600003F0B7FC3946304603F00AFD0028F9D0EC
:101E7000641CE4B2082CF1D34FF2FF71304603F03A
:101E800082FC0021304603F02DFC0121304603F096
:101E900014FC2B4C3046214603F005FD0028F9D1F7
:101EA000BDE8FC811FB56846FFF7F2FE20480D2211
:101EB0006946103009F04AFD0121142009F0A7FD00
:101EC0001B4910310A79303202704A79303242703F
:101ED0003A2282708B783033C370CB783033037101
:101EE00042710B78303383714B783033C371027297
:101EF0000B7B3033437282728B793033C372CB7970
:101F00003033037342730B7A303383734B7A30333D
:101F1000C37302748A7A30324274C97A3031817460
:101F200004B010BD0000024000080240A08601007D
:101F30003C020020005C004001000300820007001A
:101F400010000010005201042806181070477CB5DC
:101F5000FFF7FCFF0121042001F01AFE042001F02C
:101F600069FD4CF20370009000208DF804008DF89C
:101F70000700FB4D6946284602F02EF80022114664
:101F8000284602F0A1F800220121284602F09CF820
:101F900000220821284602F097F80022092128464D
:101FA00002F092F800220A21284602F08DF8002261
:101FB0000E21284602F088F800220F21284602F060
:101FC00083F84FF680700090E64C6946204602F098
:101FD00003F800220721204602F076F800220821AB
:101FE000204602F071F800220921204602F06CF828
:101FF00000220A21204602F067F800220B21204629
:1020000002F062F800220C21204602F05DF8002266
:102010000D21204602F058F800220E21204602F041
:1020200053F800220F21204602F04EF84FF23F01F4
:102030000091CD4E6946304601F0CEFF0022114698
:10204000304602F041F800220121304602F03CF80F
:1020500000220221304602F037F8002203213046E8
:1020600002F032F800220421304602F02DF800225E
:102070000521304602F028F800220C21304602F0FB
:1020800023F800220D21304602F01EF800220E2116
:10209000304602F019F800220F21304602F014F801
:1020A0003F210091B14E6946304601F095FF002274
:1020B0001146304602F008F800220121304602F0B5
:1020C00003F800220221304601F0FEFF0022032126
:1020D000304601F0F9FF00220421304601F0F4FF00
:1020E00000220521304601F0EFFF4FF460510091CE
:1020F0006946284601F070FF00220B21284601F0B6
:10210000E3FF00220C21284601F0DEFF00220D2112
:10211000284601F0D9FF302100916946284601F098
:102120005BFF00220421284601F0CEFF002205219A
:10213000284601F0C9FF211500916946304601F09B
:102140004BFF00220C21304601F0BEFF032100911D
:102150006946204601F040FF00221146204601F06A
:10216000B3FF00220121204601F0AEFF7CBD2DE926
:10217000FC4101213A2002F0FAF84CF23370009051
:1021800002208DF804008DF8050000248DF806402B
:102190008DF80740724F6946384601F01DFF0C224A
:1021A0000021384601F090FF0C220121384601F051
:1021B0008BFF0C220421384601F086FF0C220521FA
:1021C000384601F081FF0C220821384601F07CFFDF
:1021D0000C220921384601F077FF0C220A213846EB
:1021E00001F072FF0C220E21384601F06DFF0C2227
:1021F0000F21384601F068FF4FF680700090594E6D
:102200006946304601F0E8FE0C220721304601F015
:102210005BFF0C220821304601F056FF0C220921F9
:10222000304601F051FF0C220A21304601F04CFFEC
:102230000C220B21304601F047FF0C22114630469C
:1022400001F042FF0C220D21304601F03DFF0C222F
:102250000E21304601F038FF0C220F21304601F0EC
:1022600033FF082500956946304601F0B5FE0C2283
:102270000321304601F028FF80200090694638464F
:1022800001F0AAFE0C220A21384601F01DFF00953C
:1022900001258DF804508DF805408DF806408DF825
:1022A00007406946384601F097FE6E0300968DF8A8
:1022B00004508DF805508DF806408DF807406946AA
:1022C000384601F089FE3146384601F0EDFEBDE8A2
:1022D000FC8100B597B00121084602F060F80120AA
:1022E000019000200290092103910490059006902E
:1022F0000790089009900A9010210B910C900D9076
:102300000E900F901090090211911290139014905A
:1023100001A81590169008A801F0A4FB0121002047
:1023200001F036FC17B000BD1149486070471149F3
:10233000088070474FF0C04210800E4801807047FF
:1023400001B581B042F2107101984843009002E05B
:102350000098401E009000980028F9D10CBD0000A4
:10236000000C02400010024000140240001802401D
:10237000700000200000106010B5FFF7F8FEFFF7B6
:10238000A8FF0520FFF7DCFFFE4C0821204601F0E6
:102390008DFE0A20FFF7D4FF0821204601F084FEBD
:1023A00001211020FFF7C6FFB2211E20FFF7C2FF58
:1023B00006212820FFF7BEFF01210020FFF7BAFF0A
:1023C00043F2EF010120FFF7B5FF4FF4C061022097
:1023D000FFF7B0FF00211020FFF7ACFF0520FFF74B
:1023E000AFFF46F630011120FFF7A4FF40F6991128
:1023F0001220FFF79FFF4FF460512620FFF79AFF4E
:1024000033210720FFF796FF05210C20FFF792FFED
:1024100000213020FFF78EFF40F203313120FFF71B
:1024200089FF40F207413220FFF784FF40F2013379
:1024300019463320FFF77EFF19463420FFF77AFF55
:1024400040F203413520FFF775FF40F20771362057
:10245000FFF770FF21153720FFF76CFF4FF4206165
:102460003A20FFF767FFA1143B20FFF763FF0A2123
:102470000D20FFF75FFF4FF438510E20FFF75AFF92
:102480004FF46F414420FFF755FF00214520FFF72F
:1024900051FF40F23F114620FFF74CFF00214E2034
:1024A000FFF748FF00214F20FFF744FF00212220C3
:1024B000FFF740FF00224FF496330020FFF737FF6D
:1024C000521C9A42F9D3BDE81040AF482CE700B542
:1024D0000B4601464E20FFF72DFF19464F205DF8B1
:1024E00004EB27E74FF0C0410880A84800887047F8
:1024F0004FF0C041222008807047A44800887047F0
:1025000000B500210846FFF7E2FFFFF7F1FF0020CA
:102510009E494FF478424FF4C8430A80401C9842C9
:10252000FBD34FF4FC624FF4484301E00A80401CA7
:102530009842FBD31F224FF4963301E00A80401CDF
:102540009842FBD300BD03B5BDF800108E48083893
:102550000180BDF80410418000E78B4A083A1388D7
:10256000038050880880704701B5BDF80000864997
:102570000839088008BD01B5BDF800008249083956
:10258000488008BD704780480838406870472DE98A
:10259000F041054688461646002429464046FFF786
:1025A00096FF794F083F29E0FFF7A2FF00231AE0CA
:1025B0000C21B0FBF1F1C90080228A4036F81410DA
:1025C0001A410A4201D10C2805D901229A40114230
:1025D00005D10C2803D97888FFF7A9FE02E03888D6
:1025E000FFF7A5FE5B1C786880889842E0D86D1CD8
:1025F000ADB229464046FFF76AFF641C7868C08880
:10260000A042D1D8BDE8F08110B4203AD3B25E4ADE
:10261000083A52681468D2885A4304EB420210BC4C
:10262000B5E7F0B507460024574D4FF4A076083DB6
:10263000202221463846FFF7E7FF6868818808199D
:1026400084B2B442F4D3F0BD30B505460024002175
:102650000846FFF73CFFFFF74BFF4C494FF496301D
:102660000D80641C8442FBD330BD2DE9F0438046CD
:102670000D4616469946002429464046FFF727FF97
:10268000414F083FB9F1000F16D1FFF731FF03E0CA
:102690003888FFF74CFE641CB442F9D3BDE8F083E0
:1026A000FFF726FF3888FFF742FE6D1CADB22946C2
:1026B0004046FFF70CFF641CB442F1D3EEE7B0F5DF
:1026C000A07F08D2002906DBEF2904DC002389B2B1
:1026D00080B20122C9E770472DE9F04180460D46DE
:1026E0000024294E4FF4A077083E0AE021464046D8
:1026F000FFF78AFF70688088204484B2BC4281D290
:102700006D1C2A78002AF1D17CE770B504460D468D
:10271000164621464520FFF70DFEA219B2F5A07F0F
:1027200005D340F23F114620FFF704FE03E091B2CB
:102730004620FFF7FFFDEA18F02A02D34FF46F425C
:1027400000E01202224391B24420FFF7F3FD294634
:102750002046BDE87040BAE67047F0B504460F4623
:1027600015461E460123324639462046FFF77DFFB7
:102770006019401E80B2012332463946FFF775FFCB
:10278000002305E0000C02407800002000001060EB
:102790002A4639462046FFF768FFB81981B22A4613
:1027A0002046BDE8F04000235FE72DE9FC4F80465E
:1027B00089460320A0EB42060024154674E008EB8E
:1027C000040009EB050A01901FFA8AF180B2FFF7B5
:1027D0007EFEFFF78DFEFE4F3888FFF7A8FD0198BB
:1027E000A9EB050B1FFA8BF180B2FFF770FEFFF724
:1027F0007FFE3888FFF79BFD1FFA8AF1A8EB040AD9
:102800001FFA8AF0FFF763FEFFF772FE3888FFF7C2
:102810008EFD1FFA8BF11FFA8AF0FFF758FEFFF7C3
:1028200067FE3888FFF783FD09EB040081B208EBEF
:10283000050A00901FFA8AF0FFF749FEFFF758FEDD
:102840003888FFF774FDA9EB040B1FFA8BF11FFA10
:102850008AF0FFF73CFEFFF74BFE3888FFF767FD75
:102860000098A8EB050A81B21FFA8AF0FFF72FFE45
:10287000FFF73EFE3888FFF75AFD1FFA8BF11FFA6B
:102880008AF0FFF724FEFFF733FE3888FFF74FFD8D
:10289000002E03DA06EB8406B61D04E0601B06EB8F
:1028A00080060A366D1E641CAC4288D9BDE8FC8FD8
:1028B000F0B50646002440F23F110020FFF707FE66
:1028C000FFF716FEC24D01234FF41667002256F89B
:1028D000241003FA02F0014203D16888FFF727FDB4
:1028E00002E02888FFF723FD521C202AEFD3641C46
:1028F000BC42EBD3F0BD70472DE9F0430746894653
:1029000090461C46B24E3088FFF72EFE002342460A
:1029100049463846FFF7A9FE09EB040081B20023BF
:1029200042463846FFF7A1FE012322464946384673
:10293000FFF79BFE07EB0800401E80B201232246F2
:102940004946FFF792FE641EA5B209F101091FFA7C
:1029500089F47088FFF708FE07E02146641CA4B2E2
:10296000002342463846FFF780FE6D1EADB2F4D21A
:102970003088BDE8F043F7E52DE9F74F0746884674
:1029800002980321A1EB40060024029D9048408854
:10299000FFF7EAFD4FF6FF7935E09DB109EA450200
:1029A00008EB050A381B93461FFA8AF180B2002310
:1029B000FFF75BFE38195A461FFA8AF180B20023EE
:1029C000FFF753FE9CB109EA440208EB040A781BA6
:1029D00093461FFA8AF180B20023FFF746FE78196A
:1029E0005A461FFA8AF180B20023FFF73EFE002EFE
:1029F00003DA06EB8406B61D04E0601B06EB8006D6
:102A00000A366D1E641CAC42C7D971480088FFF7B6
:102A1000ABFD029A03B041463846BDE8F04FC4E62C
:102A20002DE9FC5F84460C460027A2EB0C00002831
:102A300001DCACEB020000B2191B002900DCE11A3A
:102A400009B20FFA8CF526B24FF0FF3B624503D373
:102A50004FF00109CA4601E0D946DA46A34204D341
:102A60004FF0010B0122019201E0CDF804B0884241
:102A70000ADB4FF000090022019200EBD0725210E5
:102A800014B20091804623E04FF0000AD34601EBD8
:102A9000D172521014B20090884619E0314628468F
:102AA000FFF70DFE0098204404B2444508DBA4EB78
:102AB000080004B205EB090005B206EB0B0006B2F4
:102AC00005EB0A0005B20198304406B27F1C3FB204
:102AD0004745E3DDBDE8FC9F70B504460D46022D79
:102AE0000DD308E020886188241D89B2638822887C
:102AF00080B2FFF795FF6D1E2D042D0CF2D170BD35
:102B00002DE9F04704460F469146A046022F25D3F3
:102B1000B4F90050B4F9026010E0241DB1B260882D
:102B2000304483B22088284482B2A8B2FFF778FFED
:102B30002088284405B26088304406B27F1E3F04D6
:102B40003F0CEAD1B9F1000F08D0B3B2AAB2B8F87D
:102B50000210B8F80000BDE8F04761E7BDE8F08773
:102B600070B504460D4629462046FFF7B5FF04EB35
:102B70008500001F6188438802882088BDE8704076
:102B80004EE70022BCE70122BAE72DE9F34FE9B096
:102B90000446B4F800A0D34665880195012013E0EF
:102BA00004EB80014988514500D28A46594500D935
:102BB0008B4634F82020AA4200D2154601998A4259
:102BC00000D90192401C80B26A998842E8D301E0A2
:102BD000700000205F484088FFF7C6FC0295AEE019
:102BE0004FF000096A98401E1FFA80F800254FE058
:102BF000029808F02BFF0646679168900F4634F95B
:102C0000250008F012FF32463B4608F02DFF0AD29D
:102C100034F92800679F689E08F007FF32463B465C
:102C200008F03AFF15D934F92800679F689E08F02C
:102C3000FCFE32463B4608F017FF26D234F9250049
:102C4000679F689E08F0F1FE32463B4608F024FF7D
:102C50001BD804EB8800029BB0F9021004EB85003E
:102C6000B0F902000A1A34F925105B1A5A4334F9F4
:102C70002830591A92FBF1F10144484603AA09F1A0
:102C800001091FFA89F922F81010A8466D1CADB28F
:102C90006A988542ACD30020A9F1010503AF0FE08B
:102CA000411C37F8102037F811309A4207D927F81D
:102CB000103027F8112018B1401E80B200E088B211
:102CC000A842EDDB002534E037F81500584532D234
:102CD0006E1C37F81610514529D9504501D227F8F6
:102CE00015A037F81600584501D927F816B0DFF8B7
:102CF0006480B8F80200FFF737FC37F8161037F891
:102D000015000023081A82B20298FFF7AEFCB8F84B
:102D10000000FFF729FC029837F9161000B20646AA
:102D2000FFF7CDFC37F915103046FFF7C8FCAD1C96
:102D3000ADB24D45C8D30298401C80B20290DDE987
:102D400001108842FFF44CAF024800886BB0BDE828
:102D5000F04F09E4700000201CB50446FE48012134
:102D600050F8240001F003FBFB48203830F8140031
:102D7000009001208DF8040000218DF806108DF8D8
:102D8000070002208DF80500F448694650F8240039
:102D900001F022F91CBDF049F04A203931F8101039
:102DA00052F8200001837047EB49EC4A203931F892
:102DB000101052F8200041837047E84951F8201064
:102DC0004A69E54B203B33F8100042404A617047A6
:102DD00070B586B004460E46DF4801213C3850F8F5
:102DE000240001F0C4FA0121880301F0F0FA002563
:102DF0008DF814508DF81750D748403830F814002B
:102E00000490D64804A91C3850F8240001F0E4F8D6
:102E1000012E25D1D0484338015D401E005D01F0F0
:102E20007CFCCD483E3830F8140002908DF80C50F0
:102E300008208DF80D0001258DF80E5002A800F035
:102E400091FDC5484238005D8DF804000F208DF8D3
:102E500005008DF806008DF8075001A800F079FBF9
:102E600006B070BDBC49BD4A40391C3A31F810105B
:102E700052F8200001F004B92DE9FC4104460E4649
:102E8000B548B5491038083950F8240051F82410D5
:102E90000843012101F06BFAAF480121183850F8BE
:102EA000240001F094FAAC48AC4F2838103F10F8D9
:102EB0001420083830F8141057F8240001F004F9F1
:102EC000A54807F10808243810F81420083830F80D
:102ED000141058F8240001F0F7F800208DF80600CF
:102EE00001208DF8070002258DF804509A483838E3
:102EF00030F8140000908DF8055057F8240069460A
:102F000001F06AF88DF804509348343830F8140012
:102F1000009058F82400694601F05EF8A7F1080512
:102F2000314655F8240000F089F955F824000121B4
:102F300000F0FDF9BDE8FC817CB5002001F028FB24
:102F4000002001F028FB01F0FBFA00214FF40060A3
:102F500001F03DFA824C00220821204601F0B4F82D
:102F600000220921204601F0AFF800220A21204664
:102F700001F0AAF800220B21204601F0A5F800225A
:102F80000C21204601F0A0F8764D002202212846AF
:102F900001F09AF84FF47061009100218DF804104F
:102FA0008DF807106946204601F016F804210091BB
:102FB0006946284601F010F8A114009169462046A0
:102FC00001F00AF87CBD2DE9FC4101210E2001F041
:102FD000CEF9634E0C220821304601F075F80C2220
:102FE0000921304601F070F80C220A21304601F028
:102FF0006BF80C220B21304601F066F80C221146CA
:10300000304601F061F8574F0C220221384601F09A
:103010005BF84FF47060009001248DF805400220A9
:103020008DF8040000258DF806508DF8074069469C
:10303000304600F0D1FF042100916946384600F087
:10304000CBFF200300908DF807506946304600F012
:10305000C3FFE00300908DF804508DF807406946E7
:10306000414800F0B9FF0121C80201F0B0F9012187
:10307000880501F07CF95DE730B58FB004463B4D23
:103080004FF0FA51284600F0F0FB0021284600F0EE
:103090007DFB284600F0B6FA4FF0006000903448FF
:1030A000019002944020039000200490059029157F
:1030B0000691890007918900089109904FF44030EA
:1030C0000A9004200B9003200C9048020D90801071
:1030D0000E906946284600F020FB01221021284668
:1030E00000F0D4FB2021284600F068FB012128468F
:1030F00000F04CFB0FB030BD30B58FB004461B4D17
:103100004FF0FA51284600F0B0FB0021284600F0AD
:103110003DFB284600F076FA4FF00060009014481E
:1031200001900294002003900490059029150691C7
:10313000890007918900089109904FF440300A9066
:1031400004200B9003200C9048020D9080100E90EC
:10315000694628460EE00000A4DC00089C00002020
:1031600000080240000C0240000402405864024083
:10317000802C014000F0D1FA01221021284600F0F5
:1031800085FB2021284600F019FB0121284600F08C
:10319000FDFAAFE710B5E649884209D101211020B8
:1031A00001F051F90021BDE81040102001F04BB9A9
:1031B000E04988420AD101214C04204601F037F948
:1031C0002046BDE81040002101F031B9DA498842BB
:1031D0000AD101218C04204601F029F92046BDE8DE
:1031E0001040002101F023B9D44988420AD10121BD
:1031F000CC04204601F01BF92046BDE81040002118
:1032000001F015B9CE4988420AD101210C052046AA
:1032100001F00DF92046BDE81040002101F007B98A
:10322000C849884209D10121202001F00CF9002170
:10323000BDE81040202001F006B910BD7FB504465E
:103240000D46208A20F44051E88808432082A08956
:1032500041F20C618843A9882A8911436A89024393
:103260001143A181A08A20F44071A8890843A0825B
:10327000684601F011F8AE48844202D0B148844259
:1032800001D1039800E00298A189090408D500EB58
:10329000C00101EB001029684900B0FBF1F007E024
:1032A00000EBC00101EB001029688900B0FBF1F0D0
:1032B0006422B0FBF2F109010B096FF018056B43B2
:1032C00000EB8300A3891D044FF0320307D503EB05
:1032D000C000B0FBF2F000F00700084306E003EB8B
:1032E0000010B0FBF2F000F00F00084320817FBD1A
:1032F0004FF41651016000218180C18001810C22B0
:1033000042818181704710B5028A22F470630A8875
:103310004C8822438C88C9880C4322431A4302827A
:1033200010BD0021018041808180C180704700294B
:1033300004D0818941F4005181817047818921F451
:10334000005181817047028B02F47F420283028B1D
:103350000A4302837047002904D0818941F4004167
:10336000818170478189C1F30E01818170470029F5
:1033700004D0818A41F4006181827047818A21F4FE
:10338000006181827047C1F30801818070478088A5
:10339000C0F308007047028A22F00F020282028AFC
:1033A0000A4302827047002904D0818941F002015A
:1033B00081817047818921F0020181817047828972
:1033C00022F40062828182890A4382817047028AE4
:1033D00022F020020282028A0A43028270470029F8
:1033E00004D0018A41F4804101827047018A21F4AE
:1033F000804101827047818941F0010181817047DC
:10340000002904D0818A41F0080181827047818AB5
:1034100021F0080181827047028BD2B20283028BB5
:1034200042EA012101837047002904D0818A41F0DA
:10343000200181827047818A21F0200181827047BA
:10344000002904D0818A41F0100181827047818A6D
:1034500021F0100181827047828A22F00402828268
:10346000828A0A4382827047002904D0818A41F00F
:10347000020181827047818A21F0020181827047B6
:10348000002A03D0828A0A4382827047828A8A4352
:103490008282704710B540F66A13C1F3421301F0FF
:1034A0001F040121A140012B07D0022B07D01430AB
:1034B0003AB102680A43026010BD0C30F8E71030E0
:1034C000F6E702688A43026010BD024600201288B7
:1034D0000A4200D0012070478A05C9430180704725
:1034E00070B5002440F66A12C1F3421301F01F05C3
:1034F000012606FA05F2012B0CD0022B0DD0838A8F
:103500001340090A8E40008830400BB100B10124FD
:10351000204670BD83891340F3E7038A1340F0E728
:1035200040F66A120A0A01219140C943018070479E
:10353000001001400044004000480040004C0040A2
:1035400000500040001401402B4908432B490860FB
:10355000704730B50F23C27801250178002A1FD0AB
:10356000264A126802F4E062C2F5E062C2F3072262
:10357000C2F10404D3404278A24084781C40144332
:10358000220101F1E02181F80024007800F01F0100
:103590008D404009800000F1E020C0F8005130BDAE
:1035A00001F01F0085404809800000F1E020C0F8CC
:1035B000805130BD124A114001431048001F016084
:1035C00070470E4A121D002903D011680143116093
:1035D000704711688143116070474FF0E021042863
:1035E00004D0086920F0040008617047086940F0C1
:1035F00004000861704700000000FA050CED00E0CF
:1036000080FFFF1F2DE9F043016821F001010160F7
:103610000021016041608160C1600161212141613F
:10362000C149C14A10394FF03D08904203D1C1F859
:103630000880BDE8F083BC4A4FF4746518329042AC
:1036400001D18D60F5E7B84A4FF4741630329042DC
:1036500001D18E60EDE7B44A4FF074674832904272
:1036600001D18F60E5E7B04BB04A6033984201D199
:10367000CA60DEE7AC4CAE4B7834A04201D1CB60DF
:10368000D7E7DFF8A4C2AB4C0CF1900C604501D138
:10369000CC60CEE7DFF890924FF03D5C09F1A809CD
:1036A000484502D1C1F80CC0C3E7A349DFF88892AE
:1036B0000839484502D1C1F80080BAE7DFF87882BE
:1036C00008F11808404501D10D60B2E79A4D303538
:1036D000A84201D10E60ACE7974D4835A84201D110
:1036E0000F60A6E7944D94496035091FA84201D1A7
:1036F0000A609EE7904A7832904201D10B6098E7C9
:103700008D4A9032904201D10C6092E78A4AA832E9
:1037100090428ED1C1F800C08BE730B50368874A6C
:103720001340CC680A682243D1E905452C43224363
:10373000CC6922430C6A22434C6A22438C6A22439E
:103740004C6B22438C6B22431A430260426922F085
:103750000703D1E90B2422431A4342610A694260FC
:103760004A6882608968C16030BD002101604160A3
:103770008160C160016141618161C1610162416239
:103780008162C1620163416381637047002904D093
:10379000016841F0010101607047016821F00101F9
:1037A00001607047002904D0016841F400410160C4
:1037B0007047016821F4004101607047002904D07E
:1037C000016841F0200101607047016821F020018B
:1037D0000160704741607047406880B27047002ABE
:1037E00004D0026842F40022026003E0026822F47E
:1037F0000022026001617047002904D0016841F491
:10380000802101607047016821F4802101607047C8
:10381000002A01D001617047C16070470146002055
:103820000968090300D50120704701460020096896
:10383000C90700D001207047406900F03800704788
:10384000024600203C4B9A4202D2374A103A01E02D
:10385000394A103A8B0001D5526800E01268384BA3
:103860001A400A4200D001207047334A904202D2E7
:103870002D48103801E030481038314A8B0001EAF9
:10388000020101D5C1607047816070470B0609D500
:1038900022B1436943F08003436103E0436923F0AD
:1038A00080034361802905D001F01E011AB102682E
:1038B0000A430260704702688A430260704730B56D
:1038C00000241D4A904202D2174A103A01E01A4AD7
:1038D000103A1C4B194205D01E2303EAD125036878
:1038E0002B4002E0406900F08003880001D5506859
:1038F00000E01068124A1040084201D003B10124D0
:10390000204630BD0C4A904202D20748103801E0F0
:10391000094810380A4A8B0001EA020101D5C1604A
:103920007047816070470000106002403D00002039
:10393000400F002000003D20106402403F801CF03A
:103940007D0F7D0F3C0F3C0F384900200860091D9A
:103950000860091D0860091D0860344934481431A5
:103960000860704730B5314A83790168002B2AD04E
:1039700013688B431360111D0B680468A3430B602D
:10398000017911440B68046823430B60274C083409
:103990002168036899432160231D19680568A943BC
:1039A00019604179102905D011440A680068024362
:1039B0000A6030BD216802681143216019680068FF
:1039C0000143196030BD0079104402688A430260E7
:1039D00030BD0021016001710C224271817170477C
:1039E000124910310A6802430A60704701460020FC
:1039F0000E4A143212680A4200D0012070470B4967
:103A000014310860704701460020084A12680A40D5
:103A1000064B14331B680B4202D0002A00D0012051
:103A2000704702491431086070470000003C0140B3
:103A3000FFFF7F008100A1F1C04100280CD043F2BC
:103A4000D2020A60401C8000A0F1C0406FF07042BA
:103A50000260C1F8042170474FF0204343F2DB02BB
:103A60001A60EFE710B5D0E901121143D0E9032342
:103A70001A4311434269114382691143C2691143D8
:103A8000026A1143426A1143826A1143C26A1143B6
:103A9000026B114302689200A2F1C042116081687A
:103AA000082907D101688900A1F1C0410A6842F0E4
:103AB00040020A60416BD1E9002342EA03128B689D
:103AC0008C891B0243EA04431A430B8A42EA0352DD
:103AD0000B7D896942EA03620A430168491C890037
:103AE000A1F1C0410A60C16AB1F5804F08D00068F9
:103AF0006FF070418000A0F1C040C0F8041110BD0B
:103B0000816BD1E9002342EA03128B680C8A1B0205
:103B100043EA04531A430B7D896942EA0362006851
:103B20000A438000A0F1C040C0F8042110BD10B5C8
:103B300000210160022242608160C1600161416137
:103B40008161C1610162D202426252008262C1623D
:103B50000163436B0F221A60436B5A60446BFF236F
:103B6000A360446BE260446B2261446B6261446B0E
:103B7000A161846B2260846B6260846BA360836B41
:103B8000DA60836B1A61836B5A61806B816110BD4F
:103B90008000A0F1C040002904D0016841F001017B
:103BA000016070470168CE4A11400160704710B54E
:103BB000182440234FF020414FF0FC32102805D04C
:103BC00041F8804F4B608A60CA6010BD0C664B663E
:103BD0008A66CA6610BD30B5D0E901121143D0E93A
:103BE00003231A431143426941EA4221826941EAAF
:103BF000423141F00804C169D1E9002342EA0322BD
:103C00000B89097B1B0443EA01610A43016AD1E97C
:103C1000003543EA05230D89097B2D0445EA01613E
:103C20000B4301684FF02040102904D040F8804F2A
:103C30008260C36030BD04668266C36630BD1021F9
:103C40000160002141608160C16001614161816169
:103C5000C269FC211160C2695160C2699160C26988
:103C6000D160026A1160026A5160026A9160006A62
:103C7000C16070474FF0204200290CD0102805D0B9
:103C800052F8800F40F0040010607047106E40F052
:103C90000400106670479249C91E102804D052F8DB
:103CA000800F084010607047106E08401066704723
:103CB0004FF0204200290CD0102805D052F8800F78
:103CC00040F0400010607047106E40F040001066F9
:103CD000704783493F39102804D052F8800F0840BC
:103CE00010607047106E0840106670474FF020411A
:103CF000102802D0D1F894007047486F7047794877
:103D000018210160002141604FF0FC318160C160E9
:103D10000161704710B5D0E9001241EA4221826882
:103D2000102343EA423211436E4A1160C168D1E95F
:103D3000003443EA04230C89097B240444EA01612A
:103D40000B4393600169D1E9003443EA04230C89F1
:103D5000097B240444EA01610B43D3604069D0E944
:103D6000001341EA03210389007B1B0443EA00603E
:103D70000143116110BD0021016041608160C26892
:103D8000FC211160C2685160C2689160C268D16054
:103D90000269116002695160026991600269D16033
:103DA0004269116042695160426991604069C16035
:103DB00070474FF02041002805D051F8A00F40F087
:103DC00004000860704751F8A00F454AD21E104009
:103DD0000860704710B54FF480744FF02043002AFC
:103DE00011D0102806D0A04208D153F8840F084300
:103DF000186010BD586E0843586610BD53F8A40FE4
:103E00000843186010BD102806D0A04208D153F80E
:103E1000840F8843186010BD586E8843586610BDE3
:103E200053F8A40F8843186010BD034600204FF0DC
:103E30002042102B08D0B3F5807F07D0D2F8A42001
:103E40000A4200D001207047526EF9E7D2F8842070
:103E5000F6E74FF02042102807D0B0F5807F08D059
:103E600052F8A40F884310607047506E8843506624
:103E7000704752F8840F8843106070470346002053
:103E80004FF02042102B0ED0B3F5807F0DD0D2F82A
:103E9000A42002EA010302EAD101002B02D000298A
:103EA00000D001207047526EF3E7D2F88420F0E78B
:103EB0004FF02042102808D0B0F5807F0AD052F889
:103EC000A40F20EAD10010607047506E20EAD100A4
:103ED0005066704752F8840F20EAD1001060704796
:103EE000FEFF0F00A00000A010B57F49884209D155
:103EF0000121084600F077FA0021BDE810400120BA
:103F000000F071BA7949884209D10121022000F0FC
:103F10006AFA0021BDE81040022000F064BA74493A
:103F2000884209D10121042000F05DFA0021BDE89A
:103F30001040042000F057BA6E49884209D101218F
:103F4000082000F050FA0021BDE81040082000F0E1
:103F50004ABA6949884209D10121102000F043FA88
:103F60000021BDE81040102000F03DBA63498842AE
:103F700009D10121202000F036FA0021BDE81040CF
:103F8000202000F030BA5E49884209D1012140204A
:103F900000F029FA0021BDE81040402000F023BACB
:103FA0005849884209D10121802000F01CFA0021E3
:103FB000BDE81040802000F016BA534988420AD16B
:103FC00084150121204600F00EFA2046BDE810407D
:103FD000002100F008BA10BD2DE9F04100220127B0
:103FE0004FF0030C07FA02F50B682B40AB422CD1C3
:103FF000066853000CFA03F4A64306600E79D0F865
:1040000000809E4046EA080606600E79012E01D027
:10401000022E12D18668A64386604E79D0F80880B9
:104020009E4046EA080686604668AE43466045689C
:104030008E799640B6B235434560C568A543C560E4
:10404000CC799C40C3681C43C460521C102AC9D35D
:10405000BDE8F0814FF6FF710160002101714171EF
:104060008171C171704708B541F480320092009AA5
:10407000C261C1610099C161C169C069009008BD98
:104080000246002012690A4200D0012070470069F0
:1040900080B270470246002052690A4200D00120D7
:1040A0007047406980B27047018370474183704711
:1040B000002A01D0018370474183704741617047F6
:1040C00042694A404261704710B54B07DB0E9A4087
:1040D000C90800EB8100016A0F249C40A1430162E2
:1040E000016A1143016210BD000002400004024059
:1040F00000080240000C0240001002400014024080
:1041000000180240001C024000200240F8480168EC
:1041100041F001010160F64A002108321160026895
:10412000F44B1A400260031DF34A1A60026822F43D
:1041300080220260EE480C3001607047EC4900229A
:10414000891C0A7008707047024600205109012935
:104150000CD002290DD0E6497431096802F01F0223
:10416000012393400B4200D001207047E0490968C9
:10417000F4E7DF4970310968F0E718B500200090D6
:104180004FF4A0443120FFF7DFFF0099491C009154
:104190000099A14201D00028F4D03120FFF7D4FFCC
:1041A00008B1012018BD002018BDD14A116821F0C6
:1041B000F80141EAC00010607047D04908607047BC
:1041C000CB49002270310A700A70012804D00428FB
:1041D00001D1052008707047012008707047C84958
:1041E0000860704710B5029C41EA82114FF0FF321F
:1041F00002EB530241EA0241014341EA0460BC4937
:10420000091D086010BDBD4908667047800140EA7D
:104210000170B749843108607047B84988667047B3
:10422000B649C8647047B24B08331A6822F0EC6292
:104230000843104318607047AD4B08331A6822F0EA
:1042400078420843104318607047A94A0832116841
:1042500021F00301014311607047A5480830006850
:1042600000F00C007047A24A0832116821F0F001FA
:104270000143116070479E4A0832116821F4E051F1
:104280000143116070479A4A0832116821F4604175
:1042900041EAC0001060704770B5954B083319684B
:1042A00001F00C01974C00291ED0661004291DD086
:1042B00008291DD00460196801F0F0010909924A2B
:1042C000545C0168E14041601C6804F4E054A40AB5
:1042D000145D21FA04F484601B6803F460435B0BF3
:1042E000D25CD140C16070BD0460E4E70660E2E7E3
:1042F0007F4A121D1168C1F38055116801F03F011A
:1043000035B1B6FBF1F11468C4F38814614305E0DC
:10431000B4FBF1F11468C4F3881461431268C2F36A
:104320000142521C5200B1FBF2F10160C3E7C0F33D
:104330000121032908D16E4B0833196821F4F812C2
:104340007249014011431960694A70321168C0F323
:104350000B00014311607047694944390860704798
:104360006749403908607047694908607047604A8A
:104370003032002903D01168014311607047116881
:104380008143116070475A4A3432002903D01168C2
:104390000143116070471168814311607047544AAE
:1043A0003832002903D01168014311607047116849
:1043B0008143116070474E4A4032002903D0116892
:1043C0000143116070471168814311607047484A8A
:1043D0004432002903D0116801431160704711680D
:1043E000814311607047424A1032002903D011689E
:1043F00001431160704711688143116070473C4A66
:104400001432002903D0116801431160704711680C
:10441000814311607047364A1832002903D0116871
:104420000143116070471168814311607047304A41
:104430002032002903D011680143116070471168D0
:104440008143116070472A4A2432002903D0116841
:104450000143116070471168814311607047244A1D
:104460005032002903D01168014311607047116870
:104470008143116070471E4A5432002903D01168ED
:104480000143116070471168814311607047184AF9
:104490005832002903D01168014311607047116838
:1044A000814311607047124A6032002903D01168BD
:1044B00001431160704711688143116070470C4AD5
:1044C0006432002903D011680143116070471168FC
:1044D000814311607047064A0D32002903D01178DC
:1044E00001431170704711788143117070470000CB
:1044F00000380240FFFFF6FE103000240000474263
:10450000800E47420024F400AC000020FFFCFF0FA7
:104510005C0147420948016841F080710160E5E7AC
:1045200001460020054A683A12680A42DED001209E
:10453000DCE7024966390870D8E7000074380240A9
:1045400010B50121CC022046FFF77DFF2046BDE8D3
:1045500010400021FFF777BF30B5644B196847F66C
:10456000FF629143027D8468C568224344682C43FE
:10457000224304680069224302430A431A6030BDA3
:1045800000210175016041608160C1600161704777
:104590005749086070475549091F086070475348DC
:1045A000001F006800F00300704710B54F4A016813
:1045B000121D1160141D21686FF30A01D0E9012357
:1045C0001A43D0E9033003431A430A43226010BD63
:1045D0000021016041608160C16001617047434812
:1045E0000C300068C0B2704708B54049103108442B
:1045F00000900098006808BD10B53C4A0168203260
:104600001160121D41681160141D216821F0F7012D
:10461000D0E902231A43D0E9043003431A430A4382
:10462000226010BD4FF0FF310160002141608160C8
:10463000C1600161416170472C482C3000687047AF
:104640002A487C300068704728497C3108607047F0
:10465000264844300068704726490860704725495D
:10466000091D0860704723490831086070472149D7
:104670000C31086070472049086070471E49091DC9
:1046800008607047012181431B4808300160704772
:1046900019490C3108607047164914390860704791
:1046A000124A3832002903D0116801431160704763
:1046B0001168814311607047014600200B4A303277
:1046C00012680A4200D0012070470849343108605E
:1046D000704701460020054A303212680A4200D075
:1046E000012070470149343108607047042C0140B3
:1046F000A0802542A0852542AC81254210B501212C
:104700008C032046FFF79FFE2046BDE810400021A5
:10471000FFF799BE11490860704710B58A07120F5C
:104720000F23934021F003040D49214401F60801B1
:104730000C689C430C600B68904003430B6010BDF9
:10474000084908607047084908607047002003491D
:1047500020310968C90500D50120704700380140A3
:1047600000300140DC0027420004274210B5C74951
:1047700088420AD1841401212046FFF764FE2046B6
:10478000BDE810400021FFF75EBEC14988420AD152
:10479000041401212046FFF74AFE2046BDE81040E0
:1047A0000021FFF744BEBB4988420AD1C41301214E
:1047B0002046FFF73CFE2046BDE810400021FFF7F1
:1047C00036BE10BD30B5028802F441530A884C88C9
:1047D000CD8822438C882C4322430C8922434C8968
:1047E00022438C892243CC8922431A430280828B44
:1047F00022F400628283098A018230BDF0B5022270
:1048000000230124858B4FF2400635408583022525
:104810000584858B8E68022E38D08A8802B10224E6
:104820009D4A13681B0203D5136823F40003136029
:10483000994A7C321368C3F388131268C2F3027674
:10484000954A121F126802F03F02944FB7FBF2F232
:104850005A43B2FBF6F2CB88B3F5007F2BD063014D
:10486000B2FBF3F202EB82028B685200B2FBF3F26E
:10487000521D92B20A23B2FBF3F202F00103D21AE4
:10488000C2F34F024FF6FF7404EA0323941EFE2C7A
:1048900001D302220023CC881A43144304840A88DB
:1048A0004B881A438B8889890B431A432A4342F465
:1048B00000618183F0BD120A02EB82028B68520014
:1048C000B2FBF3F2521D92B2D4E700210180418085
:1048D0008180C180018141818181C1810721018263
:1048E00070470021018041808180C1800222826066
:1048F00081817047002904D0018841F04001018086
:104900007047018821F0400101807047002904D0E0
:10491000818B41F4806181837047818B21F48061B8
:1049200081837047028822F40062028002880A4371
:1049300002807047B1F5804F04D0018821F4804196
:1049400001807047018841F4804101807047A1F5E2
:104950007E42FF3A04D0018841F4807101807047A3
:10496000018821F4807101807047002904D081887A
:1049700041F0040181807047818821F00401818029
:104980007047002904D0818841F010018180704770
:10499000818821F010018180704730B50023828B1F
:1049A0004FF240042240828302220284848B0A88D0
:1049B0004FF48075B2F5007F00D002B92B464A88CB
:1049C0008D8889892A4319430A43224342F40061AE
:1049D000818330BD8089704781817047002904D070
:1049E000018841F4005101807047018821F4005191
:1049F00001807047018841F480510180704701298E
:104A000001D0008B7047808A7047008A7047002A67
:104A100003D082880A438280704782888A438280DA
:104A20007047090901238B4099B2002A03D082887C
:104A30000A438280704782888A4382807047024698
:104A4000002012890A4200D001207047C943018129
:104A5000704730B50246002001F00F03012505FA2A
:104A600003F4A3B2090905FA01F4A4B29188214024
:104A700012891A4202D0002900D0012030BD01F075
:104A80000F0201219140C94301817047003001406C
:104A900000380040003C00400838024000127A0014
:104AA00010B5F949884209D101210846FFF7CBFC2E
:104AB0000021BDE810400120FFF7C5BCB0F1804FD8
:104AC0000CD0F249884213D101210220FFF7AFFC3C
:104AD0000021BDE810400220FFF7A9BC01210846D3
:104AE000FFF7A5FC0021BDE810400120FFF79FBCA7
:104AF000E749884209D101210420FFF798FC0021F1
:104B0000BDE810400420FFF792BCE249884209D179
:104B100001210820FFF78BFC0021BDE81040082090
:104B2000FFF785BCDC49884209D101211020FFF73D
:104B30007EFC0021BDE810401020FFF778BCD7496B
:104B4000884209D101212020FFF771FC0021BDE836
:104B500010402020FFF76BBCD149884209D10121C8
:104B60000220FFF770FC0021BDE810400220FFF793
:104B70006ABCCC4988420AD101210C042046FFF7C7
:104B800062FC2046BDE810400021FFF75CBCC6492E
:104B900088420AD101214C042046FFF754FC2046EC
:104BA000BDE810400021FFF74EBCC04988420AD141
:104BB00001218C042046FFF746FC2046BDE810404A
:104BC0000021FFF740BCBA49884209D101214020A9
:104BD000FFF72DFC0021BDE810404020FFF727BC67
:104BE000B449884209D101218020FFF720FC00212F
:104BF000BDE810408020FFF71ABCAF4988420AD1B7
:104C0000841501212046FFF712FC2046BDE8104024
:104C10000021FFF70CBC10BD30B502889A4CA04DA6
:104C2000A0420DD0A8420BD0B0F1804F08D0974BD6
:104C3000984205D0964B984202D0964B984203D1A9
:104C400022F070034A881A43934B984206D0934B44
:104C5000984203D022F440730A891A4302804A68BA
:104C6000C2620A880285A04201D0A84201D1897A95
:104C700001860121818230BD4FF0FF31416000216A
:104C80000180018141808172704701858282704775
:104C9000028822F070020A43028070474162704726
:104CA000C1627047406A7047008D7047002904D088
:104CB000018841F0020101807047018821F0020162
:104CC00001807047002904D0018841F0040101806F
:104CD0007047018821F0040101807047002904D049
:104CE000018841F0800101807047018821F0800136
:104CF00001807047028822F00802028002880A437D
:104D000002807047028822F44072028002880A43BF
:104D100002807047002904D0018841F00101018020
:104D20007047018821F001010180704730B5028C85
:104D300022F001020284058C8388028B22F070022B
:104D400022F003020C88144325F002028D891543DA
:104D50004A882A434C4DA84202D0514DA8420FD157
:104D600022F00805CA892A4322F004058A882A43CA
:104D700023F4807323F400730D8A1D434B8A2B4365
:104D80008380048389684163028430BD70B5028CDE
:104D900022F010020284028C8388048B24F4E04405
:104DA00024F440760D884FF6FF7404EA0525354358
:104DB00022F020028E8904EA061616434A8804EA85
:104DC00002123243304EB04202D0354EB04217D1BB
:104DD00022F08002CE8904EA0616164326F0400629
:104DE0008A8804EA0212324323F4806323F40063C6
:104DF0000E8A04EA86061E434B8A04EA8303334381
:104E00008380058389688163028470BD70B5028CDC
:104E100022F480720284028C8388848B24F07004D4
:104E200024F003040D88254322F400728E894FF686
:104E3000FF7404EA062616434A8804EA0222324333
:104E4000114EB04202D0164EB04217D122F4006685
:104E5000CA8904EA0222324322F480668A8804EA7C
:104E60000222324323F4805323F400530E8A04EACF
:104E700006161E434B8A04EA03133343838085835B
:104E80008968C163028470BD0000014000040040D5
:104E900000080040000C00400010004000140040DA
:104EA000000401400040014000440140004801402E
:104EB00000180040001C00400020004070B5028C2B
:104EC00022F480520284058C8288838B23F4E04391
:104ED00023F440760C884FF6FF7303EA042434432E
:104EE00025F400558E8903EA06362E434D8803EAE1
:104EF00005353543FE4EB04202D0FE4EB04205D1DC
:104F000022F480460A8A03EA821232438280848332
:104F1000896801640584B6E70021018041808180B1
:104F200081608181C18101824182704730B500F189
:104F3000180301248C40058CA5430584002912D058
:104F4000082910D0091FC1F34E001844016848F623
:104F5000FF731940016001684FF6FF7303EA0222F4
:104F60001143016030BD03EB510001684FF68F73B0
:104F70001940016001681143016030BD4163704711
:104F800081637047C163704701647047028B22F0F0
:104F900070020A4302837047028B22F4E0424FF60C
:104FA000FF7303EA0121114301837047828B22F0D2
:104FB00070020A4382837047828B22F4E0424FF6EC
:104FC000FF7303EA0121114381837047028B22F0B2
:104FD00008020A4302837047028B22F400624FF6F4
:104FE000FF7303EA0121114301837047828B22F092
:104FF00008020A4382837047828B22F400624FF6D4
:10500000FF7303EA0121114381837047028B22F071
:1050100004020A4302837047028B22F480624FF637
:10502000FF7303EA0121114301837047828B22F051
:1050300004020A4382837047828B22F480624FF617
:10504000FF7303EA0121114381837047028B22F031
:1050500080020A4302837047028BC2F30E024FF6AE
:10506000FF7303EA0121114301837047828B22F011
:1050700080020A4382837047828BC2F30E024FF68E
:10508000FF7303EA0121114381837047028C22F0F0
:1050900002020A4302847047028C22F008020A438B
:1050A00002847047028C22F020024FF6FF7303EA5D
:1050B0000111114301847047028C22F080024FF6E7
:1050C000FF7303EA0111114301847047028C22F43B
:1050D00000724FF6FF7303EA012111430184704708
:1050E000028C22F400624FF6FF7303EA01211143A0
:1050F00001847047028C22F400524FF6FF7303EADA
:10510000013111430184704710B501238B40048C99
:105110009C430484038C8A401343038410BD10B560
:1051200004238B40048C9C430484038C8A401343E7
:10513000038410BD828B22F440628283828B4FF6FF
:10514000FF7303EA01210A438283704770B5048C20
:1051500024F480540484858B068C4FF6FF7404EA93
:10516000013125F4734504EA02222A4304EA033399
:10517000134326F420420A4342F48051838301847E
:1051800081E6828B22F00C028283828B0A43828327
:105190007047F0B5048C24F480740484868B058CED
:1051A0004FF6FF7707EA012426F0F30607EA03111A
:1051B0001143314325F42062224342F480728183FB
:1051C0000284F0BD028B22F440620283028B4FF610
:1051D000FF7303EA01210A430283704770B5048C10
:1051E00024F010040484058B068C4FF6FF7404EA47
:1051F000011125F4734504EA03332B4304EA022228
:105200001A4326F0A0030B4343F0100102830184EC
:1052100039E6028B22F00C020283028B0A430283DE
:10522000704770B5048C24F001040484058B048C51
:1052300025F0F3054FF6FF7606EA031313432B43DD
:1052400024F00A020A4342F00101038301841AE6B2
:1052500070B506460C4625886188A2882389002DF2
:105260000BD0042D11D0082D17D03046FFF76EFF5C
:10527000E1883046BDE870405CE73046FFF7D1FF7B
:10528000E1883046BDE87040C3E73046FFF7A6FF2F
:10529000E1883046BDE8704094E73046FFF779FF7B
:1052A000E1883046BDE870406BE700210180418015
:1052B00001228280C180018170472DE9F0410746BB
:1052C0000C46002501266188002900D10225A2880C
:1052D000012A00D1022620882389B0B13846FFF781
:1052E0007DFFE1883846FFF76DFF2389324603E0F2
:1052F000000001400004014029463846FFF791FFB5
:10530000E1883846BDE8F04183E73846FFF789FF7A
:10531000E1883846FFF77DFF238932462946384623
:10532000FFF75CFFE1883846BDE8F0414AE7406B93
:105330007047806B7047C06B7047006C704710B54A
:105340000A884B88CC881A438B8823431A430B89DD
:105350001A434B8989891A430A43A0F8442010BD97
:105360000021018041808180C18001814181818152
:105370007047002905D030F8441F41F400410180F6
:10538000704730F8441FC1F30E01018070470029B7
:1053900004D0818841F0040181807047818821F028
:1053A000040181807047002904D0818841F0010107
:1053B00081807047818821F0010181807047002A37
:1053C00003D082890A438281704782898A4382811D
:1053D00070478182704702460020128A0A4200D03C
:1053E00001207047C9430182704702460020138A9A
:1053F0000B4092890A40002B02D0002A00D00120E5
:105400007047C943018270471143A0F848107047A4
:10541000002A03D082890A438281704782898A43A5
:1054200082817047002904D0818841F00801818081
:105430007047818821F0080181807047018921F03F
:10544000070101817047028922F070020A4302813C
:10545000704700B503461846FFF7F5FF188940F07E
:105460000700188100BD70B50D4604461146602D39
:105470000CD001222046FFF7D4FE29462046FFF734
:10548000E2FF208940F007002081FCE40122204651
:10549000FFF7A4FEF1E730B50489E4B24FF6FF75DB
:1054A00005EA032313430B432343038130BD10B5A7
:1054B00004462046FFF7EFFF208920F0070040F068
:1054C000070020F0700040F07000208110BD10B582
:1054D00004462046FFF7DFFF208940F4804020810A
:1054E00010BD828822F07002828082880A43828006
:1054F0007047028922F00702028102890A43028171
:105500007047028922F08002028102890A430281E7
:10551000704770B50589048B068C25F007050D438F
:105520004FF6FC410C4040F201110C4326F02206DC
:105530004FF6FF7101EA03111143314305810483E2
:105540000184A0E4002904D0818841F08001818099
:105550007047818821F0800181807047A0F8501049
:105560007047000010B5E84988420AD101214C0576
:105570002046FEF75CFF2046BDE810400021FEF704
:1055800056BFE24988420AD101218C052046FEF728
:105590004EFF2046BDE810400021FEF748BFDC4921
:1055A00088420AD10121CC052046FEF740FF204663
:1055B000BDE810400021FEF73ABF10BD7FB504469C
:1055C0000D46A08820F03F066846FEF765FE02986B
:1055D000D049B0FBF1F189B20E43A680228822F0B7
:1055E00001022280CC4B2A689A4209D85200B0FBB3
:1055F000F2F080B2042800D20420491C218423E068
:10560000EB88A3F53F46FF3E0BD002EBC20303EB52
:105610000212B0FBF2F080B240F48040020506D0E6
:1056200007E002EB4202B0FBF2F080B2F6E740F096
:10563000010040F400404FF4967251434FF47A72E7
:10564000B1FBF2F1491C2184A083208840F00100C5
:10565000208020884FF6F5310840A9886A891143D7
:1056600001432180A8892989084320817FBD41F217
:1056700088310160002181804BF6FF72C280018178
:1056800041814FF4804181817047002904D0018815
:1056900041F0010101807047018821F00101018082
:1056A0007047002904D0018841F48071018070475F
:1056B000018821F4807101807047002904D001889D
:1056C00041F4007101807047018821F4007101806C
:1056D0007047002A02D041F0010101E001F0FE0113
:1056E00001827047002904D0018841F48061018063
:1056F0007047018821F4806101807047828922F01F
:10570000FE0201F0FE01114381817047002904D09F
:10571000818941F0010181817047818921F0010176
:1057200081817047002904D0018841F04001018047
:105730007047018821F0400101807047002904D0A2
:10574000018841F40041018070470188C1F30E01D6
:1057500001807047002904D0018821F08001018078
:105760007047018841F0800101807047B1F5804F9A
:1057700004D0818B21F4804181837047818B41F477
:10578000804181837047B1F5006F04D0018821F416
:10579000006101807047018841F400610180704719
:1057A000B1F5005F04D0018821F4005101807047F9
:1057B000018841F4005101807047002904D001881C
:1057C00041F0100101807047018821F01001018033
:1057D000704701827047008AC0B27047002904D028
:1057E000018841F4805101807047018821F4805183
:1057F00001807047B1F5006F04D0018821F4006189
:1058000001807047018841F40061018070470029E0
:1058100004D0018841F0200101807047018821F007
:10582000200101807047008B000A7047002904D0D6
:10583000818841F4006181807047818821F4006192
:1058400081807047002904D0818841F48051818093
:105850007047818821F480518180704708B500909D
:105860000098084400900098008808BD002A03D0E2
:1058700082880A438280704782888A438280704788
:10588000034600209A8A1B8B1B041A4322F07F4296
:10589000914300D101207047818A008B00040143AD
:1058A00021F07F4070470CB50246002000920A0F9D
:1058B000019221F07F41019A002A03D0009A14320C
:1058C000009203E0090C009A18320092009A1268C4
:1058D0000A4200D001200CBDC9438182704710B537
:1058E00002460020938801F0E06403EA144321F0AB
:1058F0007F41928A0A4202D0002B00D0012010BDC5
:10590000C9438182704700000054004000580040A5
:10591000005C004040420F00A086010001B581B04C
:105920000198009002E00098401E00900098002826
:10593000F9D10CBD10B501214C062046FEF753FDF0
:105940002046BDE810400021FEF74DBD0121016059
:10595000002141608160C16001614FF48042426179
:105960008161C161D210026241628162C1620163E0
:1059700041638163C16340220264202242648164E6
:10598000C164016541658165C16501668022426629
:105990008166C166016741678167C167D204C0F84B
:1059A00080205210C0F88420C0F888101311C0F86D
:1059B0008C30C0F89010C0F89410C0F89810C0F85F
:1059C0009C10C0F8A010C0F8A4205212C0F8A82063
:1059D0009201C0F8AC205212C0F8B020C0F8B41048
:1059E000C0F8B810704738B500230093FB4B1C6912
:1059F00004F01C054FF6FF7404EAC0242C434FF456
:105A0000F86000EA8110204340F0020040F00100FD
:105A10005A611861F2490098401C00901869C0074B
:105A200002D000988842F6D30098884201D1002025
:105A300038BD012038BD18B500220092E74A13692D
:105A400003F01C044FF6FF7303EAC02323434FF413
:105A5000F86000EA8110184320F0020040F00100D5
:105A60001061DF490098401C00901069C00702D007
:105A700000988842F6D30098884201D1002018BDD2
:105A8000506980B218BD2DE9F04186B004468846C1
:105A9000002705970097D14E306920F01C0501A81A
:105AA000FEF7FAFB0298CF49CF4A0144914202D255
:105AB00045F0080516E0CD49CD4A0144914202D295
:105AC00045F00C050EE0CB49CB4A0144914209D385
:105AD000CA490844CA49884202D245F0040501E097
