:020000040800F2
:10000000404F0120A59B0008AD040008AF04000884
:10001000B1040008B3040008B504000800000000A3
:10002000000000000000000000000000B70400080D
:10003000B904000800000000BB040008BD0400086B
:10004000BF9B0008BF9B0008BF9B0008BF9B000828
:10005000BF9B0008BF9B0008C1040008BF9B0008AD
:10006000BF9B0008BF9B0008BF9B0008BF9B000808
:10007000BF9B0008BF9B0008BF9B0008BF9B0008F8
:10008000BF9B0008BF9B0008BF9B0008BF9B0008E8
:10009000BF9B0008BF9B0008BF9B0008BF9B0008D8
:1000A000BF9B0008BF9B0008BF9B0008BF9B0008C8
:1000B000BF9B0008BF9B0008BF9B0008BF9B0008B8
:1000C000BF9B0008BF9B0008BF9B0008BF9B0008A8
:1000D000BF9B0008BF9B0008BF9B0008BF9B000898
:1000E000BF9B0008BF9B0008BF9B0008BF9B000888
:1000F000BF9B0008BF9B0008BF9B0008BF9B000878
:10010000BF9B0008BF9B0008BF9B0008BF9B000867
:10011000BF9B0008BF9B0008BF9B0008BF9B000857
:10012000BF9B0008BF9B0008BF9B0008BF9B000847
:10013000BF9B0008BF9B0008BF9B0008BF9B000837
:10014000BF9B0008BF9B0008BF9B0008BF9B000827
:10015000BF9B0008BF9B0008BF9B0008BF9B000817
:10016000BF9B0008BF9B0008BF9B0008BF9B000807
:10017000BF9B0008BF9B0008BF9B0008BF9B0008F7
:10018000BF9B0008BF9B0008DFF80CD009F0F8FF08
:100190000048004743020008404F012010B50121EC
:1001A000454802F0EDFF454A116919B1012908D00F
:1001B00090B113E018B1012010615068D0600020A8
:1001C00010BD38B15168D368C91A282902D3022159
:1001D000116110BD002010BD00201061002010BD75
:1001E00010B501F049F9002001F0AEFA002001F04D
:1001F00042FA4FF6FF74204601F036FA01F043FA56
:100200002FA1002001F0E8FA01F03DFAC08832A1E8
:1002100001F0E2FA01F037FAC08835A104EA4000A3
:1002200001F0DAFA01F02FFAC08837A100EB4000A4
:1002300080B201F0D1FA0121BDE81040002001F0A8
:1002400047BE152000F0C3FD0446142000F0BFFD9A
:1002500044EA0020194C6080FFF7C2FF00F0DFFC89
:1002600000F074FA04F031F808B100F08CFA60681C
:1002700000F06EFBFFF792FF40B100F029FA00F0AA
:100280002BF90123042226A107F0A3FC00F027F993
:1002900000F040FE207000F025F9E3E707494A68C6
:1002A000104488604A689042FCD87047034841680F
:1002B0000A31416070470000000002400000002049
:1002C000202020202053544D3332463478372020CC
:1002D0002020202000000000202053544D333246BF
:1002E0002D342053657269657320202000000000C2
:1002F00020544350206563686F636C69656E742099
:1003000044656D6F00000000202020202020202068
:10031000202020202020202020202020000000005D
:1003200061616161000000000CB500220192009241
:100330005549086840F4803008604FF4A0430868CD
:1003400000F4003000900198401C0190009810B912
:1003500001989842F3D10868800302D501200090EB
:1003600000E000920098012831D1474840300268EF
:1003700042F0805202604548026842F44042026006
:100380004148083002680260026842F4004202609C
:10039000026842F4A0520260021F3D4B13600A68DB
:1003A00042F080720A600A689201FCD5394A40F234
:1003B00005611160016821F003010160016841F0ED
:1003C000020101600168C1F381010229FAD10CBD6B
:1003D00010B52D48016841F0010101602A4A002151
:1003E0000832116002682C4B1A400260031D2B4A30
:1003F0001A60026822F48022026023480C300160F7
:10040000FFF792FF26494FF00060086010BD70B5FD
:100410001D4E0836306800F00C00224B224900289F
:100420000FD05D1004280ED008280ED00B60306865
:100430001D4AC0F30310121D105C0A68C2400A6016
:1004400070BD0B60F3E70D60F1E70F4A121D1068F5
:10045000C0F38054106800F03F0034B1B5FBF0F0F9
:100460001368C3F38813584305E0B3FBF0F0136837
:10047000C3F3881358431268C2F30142521C52005E
:10048000B0FBF2F00860D2E7003802400070004094
:1004900008484006003C0240FFFFF6FE10300024F2
:1004A00008ED00E00024F400140000207047FEE78F
:1004B000FEE7FEE7FEE7704770477047FFF7F6BEBE
:1004C00010B5012002F01FFB002804D0BDE8104049
:1004D000012002F026BB10BD8D48C06870478C48D3
:1004E000006970478A498BA00861704770B505465E
:1004F0000C460021284606F091FA0021284606F015
:1005000090FA00221146284606F093FA14B12046CC
:1005100005F02BF92846BDE8704005F067BF2DE9CE
:10052000F04107460E4600247948C76013E00123D6
:100530003846696807F04DFB044614B1601C0AD1C7
:1005400008E02868B06008B105F024FC284605F0F2
:10055000FFFA00E0B560002C07D1B568002D04D08B
:100560006A89B7F86E008242E1D9BDE8F08110B522
:1005700002460846664BD860114600290BD08A68AF
:1005800012B1FFF7CCFF04E00A78032A01D1FFF78C
:10059000ADFF002010BD012106F01AF86FF0040035
:1005A00010BD10B502460846594BD86011468A68FE
:1005B000002A01D0FFF7B3FF002010BD2DE9F04164
:1005C00005460E4614461F465148C66061680161E3
:1005D000A17A817100214170002C05D09FB1204685
:1005E00005F0B6FA3846C0E703202870A86828B19D
:1005F00029463046FFF793FF0020B6E729463046EC
:10060000FFF774FFF8E72978012908D021893046DF
:1006100005F06DFF204605F09BFA0020A5E78168F4
:10062000491C81602189304605F061FF204605F0B4
:100630008FFA29463046FFF759FF002095E72DE94C
:10064000F0410D4616460021314FFD60002E04D0CA
:100650002846FFF74BFF304687E70C2005F0FAF8F5
:10066000044620002DD0012020706560BA682AA1C0
:10067000314809F0F5FD304809F0DCFA81B2032277
:10068000002005F08EFAA0600028E4D02A4809F086
:10069000D1FA82B22849A06805F034FC21462846E8
:1006A00006F0BAF92549284606F0B8F92449284643
:1006B00006F0B7F901222349284606F0BAF90020CE
:1006C00053E721462846FFF711FF4FF0FF304CE774
:1006D00038B50F4C6078002819D106F09BF960619D
:1006E000002814D001206070A078E178000640EA6C
:1006F0000140217940EA01206179084308F03EF980
:100700000090114B22786946606906F096F838BD72
:10071000280000200000000073656E64696E672089
:1007200074637020636C69656E74206D65737361AA
:1007300067652025640000005C010020BD050008FD
:10074000A30500086F0500083F06000800B587B044
:1007500004F0F5FF05F0EAF80020069005900490FB
:100760009649974ACDE90121009004AB05AA06A954
:10077000944805F06DF9934805F08DF9914805F01E
:10078000C5F907B000BD8F4804F06AB870B58CB0E9
:100790008D4C00264FF6FF752078002854D0012894
:1007A00050D188494868E060002870D0022020704D
:1007B000084604F0BEFDE068010E8DF82010C0F37D
:1007C00007448DF82140C0F307238DF82230C2B2D0
:1007D0008DF82320CDE900417CA103A809F040FD5C
:1007E00000F051FFC08805EA800000F09AFF00F099
:1007F0004AFFC08800EB800080B200F092FF00F05A
:1008000042FFC08800EB400005EA400000F089FF8D
:1008100000F039FFC08871A1C0EBC00080B200F0C9
:10082000DBFF00F030FFC08872A105EAC00000F0D5
:10083000D3FF00F028FFC08803A900EBC00080B2FE
:1008400000F0CAFF0CB070BD5E4804F03EFEE660EA
:100850000120207000F017FFC0886CA105EA80001D
:1008600000F0BAFF00F00FFFC0886EA100EB80001F
:1008700080B200F0B1FF00F006FFC0886FA100EB6E
:10088000400005EA400000F0A7FFDBE7FFE7086A49
:10089000C07C0428D6D9032020704A4804F049FDC2
:1008A0006C4808F06BF80B906FF0FF0008F066F8EA
:1008B0000A906848093808F061F8099009AB0AAA5B
:1008C0000BA9404805F0B4F800F0DDFEC08862A135
:1008D000C0EBC00080B200F07FFF0A208DF820003E
:1008E0008DF82160A8238DF82230C0228DF82320B6
:1008F000CDE900605EA103A809F0B2FC00F0C3FEE0
:10090000C08805EA800000F00CFF00F0BCFEC08843
:1009100000EB800080B200F004FF00F0B4FEC0885D
:1009200000EB400005EA400000F0FBFE00F0ABFEEB
:10093000C08853A105EAC00000F04EFF00F0A3FEFE
:10094000C08803A900EBC00080B200F045FF79E742
:1009500031B51D4C00986168401AFA2803D30098FD
:10096000606005F028FE0098A168401A41F28831C5
:10097000884203D30098A06008F0A1FD0098216987
:10098000401AB0F5FA7F0AD30098206104F03CFCCD
:100990002078022803D0032801D0FFF7F7FE009843
:1009A0006169401A4EF66021884205D30098606163
:1009B000BDE8384004F09DBA38BD0000419B0008F6
:1009C0008B480008C0010020400000202025642E34
:1009D00025642E25642E2564000000004950206106
:1009E0006464726573732061737369676E656420F4
:1009F00000000000202062792061204448435020FC
:100A0000736572766572202000000000202020208F
:100A1000204C6F6F6B696E6720666F7220202020FC
:100A2000000000002020202020444843502073650F
:100A300072766572202020200000000020202020F7
:100A400020706C6561736520776169742E2E2E208D
:100A5000000000000A00A8C0202020204448435085
:100A60002074696D656F75742020202000000000DF
:100A7000202025642E25642E25642E256400000088
:100A8000202053746174696320495020616464724A
:100A9000657373202020000000B5AFB001214FF036
:100AA000606002F0E4FC03F087F803F0FEFC03F062
:100AB00002FD0128FBD0684603F08AF8012000906F
:100AC000002007904FF400710A910B900E90119046
:100AD0001390149015902090090421910A112392EB
:100AE0002590269004202890299180032A90800147
:100AF0002B9040122C9040002E900121684603F06C
:100B000004F9654908602FB000BDFEB5012107203A
:100B100002F0ADFC0121880302F0D9FC012002F0B3
:100B20008FFE8620009003208DF8050002248DF8AA
:100B3000044000258DF806508DF80750574E694641
:100B4000304602F0C9FA0B220121304602F03CFB8C
:100B50000B220221304602F037FB0B2207213046E0
:100B600002F032FB4FF4705000904D4E6946304613
:100B700002F0B2FA0B220A21304602F025FB0B22CA
:100B80001146304602F020FB0B220C21304602F0C9
:100B90001BFB0B220D21304602F016FB3220009089
:100BA000404E6946304602F097FA0B22012130464A
:100BB00002F00AFB0B220421304602F005FB0B2257
:100BC0000521304602F000FB0420009001208DF842
:100BD00004008DF806508DF807008DF80540324E60
:100BE0006946304602F078FA0421304602F0DEFA17
:100BF000029544F6206402E00299491C0291029990
:100C0000A142F9D30421304602F0CEFA029502E067
:100C10000298401C02900298A042F9D3FEBD1FB575
:100C2000FFF773FFFFF738FF1B480068D0B10420BF
:100C300001F053FD684602F0AFFB01986421B0FB60
:100C4000F1F0B0F1807F0CD220F07F414FF0E02036
:100C5000491E4161154AF02111700021816107216F
:100C600001611FBD4FF4784000F0FEFC00F00BFD69
:100C7000C0880FA100EB800080B200F0ADFD00F055
:100C800002FDC0884FF6FF7100EB400001EA400012
:100C90000CA100F0A1FDFEE758000020000002407A
:100CA00000040240000802400010024023ED00E072
:100CB00020202045746865726E657420496E6974E1
:100CC000202020002020202020206661696C65649F
:100CD000202020202020000070B505468B4C0221EA
:100CE000204602F02CFF0028F9D02946204602F0C9
:100CF000F3FE0121204602F022FF0028F9D0204611
:100D000002F0E8FEC0B270BD2DE9F04104460F4686
:100D10007F4E4FF400452946304602F047FA7E20C8
:100D200040EA4400C0B2FFF7D7FF3846FFF7D4FFD0
:100D300029463046BDE8F04102F036BA70B50446A7
:100D4000734E4FF400452946304602F02FFA7E20BC
:100D500000EA440040F08000FFF7BEFF0020FFF7EC
:100D6000BBFF04462946304602F01EFA204670BDFD
:100D700070B5674D4FF400442146284602F016FA3C
:100D80000620FFF7A9FF21462846BDE8704002F083
:100D90000BBA70B55E4D4FF400442146284602F070
:100DA00005FA0520FFF798FF0020FFF795FF06469C
:100DB0002146284602F0F8F9304670BD10B50446C9
:100DC000200AFFF789FFE0B2BDE8104084E770B564
:100DD00006464F4D4FF400442146284602F0E6F9FE
:100DE0000320FFF779FF3046FFF7E8FF0020FFF709
:100DF00073FF06462146284602F0D6F9304670BDFC
:100E000070B50446424E4FF400452946304602F084
:100E1000CDF90320FFF760FF2046FFF7CFFF00204A
:100E2000FFF75AFF4FF6FF7101EA00240020FFF799
:100E300053FF204484B22946304602F0B5F92046DB
:100E400070BD2DE9F04107460E46FFF791FF304D8A
:100E50004FF400442146284602F0A8F90220FFF78B
:100E60003BFF3846FFF7AAFF3046FFF735FF214624
:100E7000284602F099F9BDE8F0418AE72DE9F041F2
:100E800007460C46FFF774FF214E4FF400452946F4
:100E9000304602F08BF90220FFF71EFF3846FFF7BD
:100EA0008DFF200AFFF718FFE0B2FFF715FF294674
:100EB000304602F079F9BDE8F0416AE72DE9F041EA
:100EC00000254FF40046124F47F6FF78FFF750FF1A
:100ED0003146384602F06AF90220FFF7FDFE284647
:100EE000FFF76CFF00240020FFF7F6FE641CE4B25D
:100EF000402CF8D33146384602F056F94035ADB2B1
:100F0000FFF747FF4545E1D3BDE8F081003C0040D5
:100F10000000024010B504462EA1204609F09EF9BB
:100F200008B1022010BD2EA1204609F097F908B1A2
:100F3000032010BD2DA1204609F090F908B104202E
:100F400010BD2DA1204609F089F908B1052010BD7A
:100F50002CA1204609F082F908B1062010BD2CA171
:100F6000204609F07BF908B1072010BD2BA12046CF
:100F700009F074F908B1082010BD2BA1204609F032
:100F80006DF908B10A2010BD2AA1204609F066F9C2
:100F900008B10B2010BD012010BD10B528A109F02B
:100FA0005DF908B1012010BD002010BD4079312845
:100FB00007D0322807D0332807D0342807D00020A4
:100FC00070470120704702207047032070470420BB
:100FD0007047000041542B4944434845434B0000AF
:100FE00041542B4F50454E310000000041542B4FCF
:100FF00050454E320000000041542B4F50454E33B7
:101000000000000041542B4F50454E3400000000BA
:1010100041542B49445245414400000041542B495E
:10102000444144440000000041542B494444454C91
:101030000000000041542B434C454152414C4C00B0
:1010400042303536323931370000000070477CB508
:10105000FFF7FCFF0121042001F01AFE042001F03B
:1010600069FD4CF20370009000208DF804008DF8AB
:101070000700FB4D6946284602F02EF80022114673
:10108000284602F0A1F800220121284602F09CF82F
:1010900000220821284602F097F80022092128465C
:1010A00002F092F800220A21284602F08DF8002270
:1010B0000E21284602F088F800220F21284602F06F
:1010C00083F84FF680700090E64C6946204602F0A7
:1010D00003F800220721204602F076F800220821BA
:1010E000204602F071F800220921204602F06CF837
:1010F00000220A21204602F067F800220B21204638
:1011000002F062F800220C21204602F05DF8002275
:101110000D21204602F058F800220E21204602F050
:1011200053F800220F21204602F04EF84FF23F0103
:101130000091CD4E6946304601F0CEFF00221146A7
:10114000304602F041F800220121304602F03CF81E
:1011500000220221304602F037F8002203213046F7
:1011600002F032F800220421304602F02DF800226D
:101170000521304602F028F800220C21304602F00A
:1011800023F800220D21304602F01EF800220E2125
:10119000304602F019F800220F21304602F014F810
:1011A0003F210091B14E6946304601F095FF002283
:1011B0001146304602F008F800220121304602F0C4
:1011C00003F800220221304601F0FEFF0022032135
:1011D000304601F0F9FF00220421304601F0F4FF0F
:1011E00000220521304601F0EFFF4FF460510091DD
:1011F0006946284601F070FF00220B21284601F0C5
:10120000E3FF00220C21284601F0DEFF00220D2121
:10121000284601F0D9FF302100916946284601F0A7
:101220005BFF00220421284601F0CEFF00220521A9
:10123000284601F0C9FF211500916946304601F0AA
:101240004BFF00220C21304601F0BEFF032100912C
:101250006946204601F040FF00221146204601F079
:10126000B3FF00220121204601F0AEFF7CBD2DE935
:10127000FC4101213A2002F0FAF84CF23370009060
:1012800002208DF804008DF8050000248DF806403A
:101290008DF80740724F6946384601F01DFF0C2259
:1012A0000021384601F090FF0C220121384601F060
:1012B0008BFF0C220421384601F086FF0C22052109
:1012C000384601F081FF0C220821384601F07CFFEE
:1012D0000C220921384601F077FF0C220A213846FA
:1012E00001F072FF0C220E21384601F06DFF0C2236
:1012F0000F21384601F068FF4FF680700090594E7C
:101300006946304601F0E8FE0C220721304601F024
:101310005BFF0C220821304601F056FF0C22092108
:10132000304601F051FF0C220A21304601F04CFFFB
:101330000C220B21304601F047FF0C2211463046AB
:1013400001F042FF0C220D21304601F03DFF0C223E
:101350000E21304601F038FF0C220F21304601F0FB
:1013600033FF082500956946304601F0B5FE0C2292
:101370000321304601F028FF80200090694638465E
:1013800001F0AAFE0C220A21384601F01DFF00954B
:1013900001258DF804508DF805408DF806408DF834
:1013A00007406946384601F097FE6E0300968DF8B7
:1013B00004508DF805508DF806408DF807406946B9
:1013C000384601F089FE3146384601F0EDFEBDE8B1
:1013D000FC8100B597B00121084602F060F80120B9
:1013E000019000200290092103910490059006903D
:1013F0000790089009900A9010210B910C900D9085
:101400000E900F9010900902119112901390149069
:1014100001A81590169008A801F0A4FB0121002056
:1014200001F036FC17B000BD114948607047114902
:10143000088070474FF0C04210800E48018070470E
:1014400001B581B042F2107101984843009002E06A
:101450000098401E009000980028F9D10CBD0000B3
:10146000000C02400010024000140240001802402C
:101470005C0000200000106010B5FFF7F8FEFFF7D9
:10148000A8FF0520FFF7DCFFFE4C0821204601F0F5
:101490008DFE0A20FFF7D4FF0821204601F084FECC
:1014A00001211020FFF7C6FFB2211E20FFF7C2FF67
:1014B00006212820FFF7BEFF01210020FFF7BAFF19
:1014C00043F2EF010120FFF7B5FF4FF4C0610220A6
:1014D000FFF7B0FF00211020FFF7ACFF0520FFF75A
:1014E000AFFF46F630011120FFF7A4FF40F6991137
:1014F0001220FFF79FFF4FF460512620FFF79AFF5D
:1015000033210720FFF796FF05210C20FFF792FFFC
:1015100000213020FFF78EFF40F203313120FFF72A
:1015200089FF40F207413220FFF784FF40F2013388
:1015300019463320FFF77EFF19463420FFF77AFF64
:1015400040F203413520FFF775FF40F20771362066
:10155000FFF770FF21153720FFF76CFF4FF4206174
:101560003A20FFF767FFA1143B20FFF763FF0A2132
:101570000D20FFF75FFF4FF438510E20FFF75AFFA1
:101580004FF46F414420FFF755FF00214520FFF73E
:1015900051FF40F23F114620FFF74CFF00214E2043
:1015A000FFF748FF00214F20FFF744FF00212220D2
:1015B000FFF740FF00224FF496330020FFF737FF7C
:1015C000521C9A42F9D3BDE81040AF482CE700B551
:1015D0000B4601464E20FFF72DFF19464F205DF8C0
:1015E00004EB27E74FF0C0410880A8480088704707
:1015F0004FF0C041222008807047A44800887047FF
:1016000000B500210846FFF7E2FFFFF7F1FF0020D9
:101610009E494FF478424FF4C8430A80401C9842D8
:10162000FBD34FF4FC624FF4484301E00A80401CB6
:101630009842FBD31F224FF4963301E00A80401CEE
:101640009842FBD300BD03B5BDF800108E480838A2
:101650000180BDF80410418000E78B4A083A1388E6
:10166000038050880880704701B5BDF800008649A6
:101670000839088008BD01B5BDF800008249083965
:10168000488008BD704780480838406870472DE999
:10169000F041054688461646002429464046FFF795
:1016A00096FF794F083F29E0FFF7A2FF00231AE0D9
:1016B0000C21B0FBF1F1C90080228A4036F81410E9
:1016C0001A410A4201D10C2805D901229A4011423F
:1016D00005D10C2803D97888FFF7A9FE02E03888E5
:1016E000FFF7A5FE5B1C786880889842E0D86D1CE7
:1016F000ADB229464046FFF76AFF641C7868C0888F
:10170000A042D1D8BDE8F08110B4203AD3B25E4AED
:10171000083A52681468D2885A4304EB420210BC5B
:10172000B5E7F0B507460024574D4FF4A076083DC5
:10173000202221463846FFF7E7FF686881880819AC
:1017400084B2B442F4D3F0BD30B505460024002184
:101750000846FFF73CFFFFF74BFF4C494FF496302C
:101760000D80641C8442FBD330BD2DE9F0438046DC
:101770000D4616469946002429464046FFF727FFA6
:10178000414F083FB9F1000F16D1FFF731FF03E0D9
:101790003888FFF74CFE641CB442F9D3BDE8F083EF
:1017A000FFF726FF3888FFF742FE6D1CADB22946D1
:1017B0004046FFF70CFF641CB442F1D3EEE7B0F5EE
:1017C000A07F08D2002906DBEF2904DC002389B2C0
:1017D00080B20122C9E770472DE9F04180460D46ED
:1017E0000024294E4FF4A077083E0AE021464046E7
:1017F000FFF78AFF70688088204484B2BC4281D29F
:101800006D1C2A78002AF1D17CE770B504460D469C
:10181000164621464520FFF70DFEA219B2F5A07F1E
:1018200005D340F23F114620FFF704FE03E091B2DA
:101830004620FFF7FFFDEA18F02A02D34FF46F426B
:1018400000E01202224391B24420FFF7F3FD294643
:101850002046BDE87040BAE67047F0B504460F4632
:1018600015461E460123324639462046FFF77DFFC6
:101870006019401E80B2012332463946FFF775FFDA
:10188000002305E0000C024064000020000010600E
:101890002A4639462046FFF768FFB81981B22A4622
:1018A0002046BDE8F04000235FE72DE9FC4F80466D
:1018B00089460320A0EB42060024154674E008EB9D
:1018C000040009EB050A01901FFA8AF180B2FFF7C4
:1018D0007EFEFFF78DFEFE4F3888FFF7A8FD0198CA
:1018E000A9EB050B1FFA8BF180B2FFF770FEFFF733
:1018F0007FFE3888FFF79BFD1FFA8AF1A8EB040AE8
:101900001FFA8AF0FFF763FEFFF772FE3888FFF7D1
:101910008EFD1FFA8BF11FFA8AF0FFF758FEFFF7D2
:1019200067FE3888FFF783FD09EB040081B208EBFE
:10193000050A00901FFA8AF0FFF749FEFFF758FEEC
:101940003888FFF774FDA9EB040B1FFA8BF11FFA1F
:101950008AF0FFF73CFEFFF74BFE3888FFF767FD84
:101960000098A8EB050A81B21FFA8AF0FFF72FFE54
:10197000FFF73EFE3888FFF75AFD1FFA8BF11FFA7A
:101980008AF0FFF724FEFFF733FE3888FFF74FFD9C
:10199000002E03DA06EB8406B61D04E0601B06EB9E
:1019A00080060A366D1E641CAC4288D9BDE8FC8FE7
:1019B000F0B50646002440F23F110020FFF707FE75
:1019C000FFF716FEC24D01234FF41667002256F8AA
:1019D000241003FA02F0014203D16888FFF727FDC3
:1019E00002E02888FFF723FD521C202AEFD3641C55
:1019F000BC42EBD3F0BD70472DE9F0430746894662
:101A000090461C46B24E3088FFF72EFE0023424619
:101A100049463846FFF7A9FE09EB040081B20023CE
:101A200042463846FFF7A1FE012322464946384682
:101A3000FFF79BFE07EB0800401E80B20123224601
:101A40004946FFF792FE641EA5B209F101091FFA8B
:101A500089F47088FFF708FE07E02146641CA4B2F1
:101A6000002342463846FFF780FE6D1EADB2F4D229
:101A70003088BDE8F043F7E52DE9F74F0746884683
:101A800002980321A1EB40060024029D9048408863
:101A9000FFF7EAFD4FF6FF7935E09DB109EA45020F
:101AA00008EB050A381B93461FFA8AF180B200231F
:101AB000FFF75BFE38195A461FFA8AF180B20023FD
:101AC000FFF753FE9CB109EA440208EB040A781BB5
:101AD00093461FFA8AF180B20023FFF746FE781979
:101AE0005A461FFA8AF180B20023FFF73EFE002E0D
:101AF00003DA06EB8406B61D04E0601B06EB8006E5
:101B00000A366D1E641CAC42C7D971480088FFF7C5
:101B1000ABFD029A03B041463846BDE8F04FC4E63B
:101B20002DE9FC5F84460C460027A2EB0C00002840
:101B300001DCACEB020000B2191B002900DCE11A49
:101B400009B20FFA8CF526B24FF0FF3B624503D382
:101B50004FF00109CA4601E0D946DA46A34204D350
:101B60004FF0010B0122019201E0CDF804B0884250
:101B70000ADB4FF000090022019200EBD0725210F4
:101B800014B20091804623E04FF0000AD34601EBE7
:101B9000D172521014B20090884619E0314628469E
:101BA000FFF70DFE0098204404B2444508DBA4EB87
:101BB000080004B205EB090005B206EB0B0006B203
:101BC00005EB0A0005B20198304406B27F1C3FB213
:101BD0004745E3DDBDE8FC9F70B504460D46022D88
:101BE0000DD308E020886188241D89B2638822888B
:101BF00080B2FFF795FF6D1E2D042D0CF2D170BD44
:101C00002DE9F04704460F469146A046022F25D302
:101C1000B4F90050B4F9026010E0241DB1B260883C
:101C2000304483B22088284482B2A8B2FFF778FFFC
:101C30002088284405B26088304406B27F1E3F04E5
:101C40003F0CEAD1B9F1000F08D0B3B2AAB2B8F88C
:101C50000210B8F80000BDE8F04761E7BDE8F08782
:101C600070B504460D4629462046FFF7B5FF04EB44
:101C70008500001F6188438802882088BDE8704085
:101C80004EE70022BCE70122BAE72DE9F34FE9B0A5
:101C90000446B4F800A0D34665880195012013E0FE
:101CA00004EB80014988514500D28A46594500D944
:101CB0008B4634F82020AA4200D2154601998A4268
:101CC00000D90192401C80B26A998842E8D301E0B1
:101CD0005C0000205F484088FFF7C6FC0295AEE03C
:101CE0004FF000096A98401E1FFA80F800254FE067
:101CF000029807F0C4FF0646679168900F4634F9D2
:101D0000250007F0ABFF32463B4607F0C5FF0AD27D
:101D100034F92800679F689E07F0A0FF32463B46D3
:101D200007F0D2FF15D934F92800679F689E07F0A5
:101D300095FF32463B4607F0AFFF26D234F9250027
:101D4000679F689E07F08AFF32463B4607F0BCFF5C
:101D50001BD804EB8800029BB0F9021004EB85004D
:101D6000B0F902000A1A34F925105B1A5A4334F903
:101D70002830591A92FBF1F10144484603AA09F1AF
:101D800001091FFA89F922F81010A8466D1CADB29E
:101D90006A988542ACD30020A9F1010503AF0FE09A
:101DA000411C37F8102037F811309A4207D927F82C
:101DB000103027F8112018B1401E80B200E088B220
:101DC000A842EDDB002534E037F81500584532D243
:101DD0006E1C37F81610514529D9504501D227F805
:101DE00015A037F81600584501D927F816B0DFF8C6
:101DF0006480B8F80200FFF737FC37F8161037F8A0
:101E000015000023081A82B20298FFF7AEFCB8F85A
:101E10000000FFF729FC029837F9161000B20646B9
:101E2000FFF7CDFC37F915103046FFF7C8FCAD1CA5
:101E3000ADB24D45C8D30298401C80B20290DDE996
:101E400001108842FFF44CAF024800886BB0BDE837
:101E5000F04F09E45C0000201CB50446FE48012157
:101E600050F8240001F003FBFB48203830F8140040
:101E7000009001208DF8040000218DF806108DF8E7
:101E8000070002208DF80500F448694650F8240048
:101E900001F022F91CBDF049F04A203931F8101048
:101EA00052F8200001837047EB49EC4A203931F8A1
:101EB000101052F8200041837047E84951F8201073
:101EC0004A69E54B203B33F8100042404A617047B5
:101ED00070B586B004460E46DF4801213C3850F804
:101EE000240001F0C4FA0121880301F0F0FA002572
:101EF0008DF814508DF81750D748403830F814003A
:101F00000490D64804A91C3850F8240001F0E4F8E5
:101F1000012E25D1D0484338015D401E005D01F0FF
:101F20007CFCCD483E3830F8140002908DF80C50FF
:101F300008208DF80D0001258DF80E5002A800F044
:101F400091FDC5484238005D8DF804000F208DF8E2
:101F500005008DF806008DF8075001A800F079FB08
:101F600006B070BDBC49BD4A40391C3A31F810106A
:101F700052F8200001F004B92DE9FC4104460E4658
:101F8000B548B5491038083950F8240051F82410E4
:101F90000843012101F06BFAAF480121183850F8CD
:101FA000240001F094FAAC48AC4F2838103F10F8E8
:101FB0001420083830F8141057F8240001F004F900
:101FC000A54807F10808243810F81420083830F81C
:101FD000141058F8240001F0F7F800208DF80600DE
:101FE00001208DF8070002258DF804509A483838F2
:101FF00030F8140000908DF8055057F82400694619
:1020000001F06AF88DF804509348343830F8140021
:10201000009058F82400694601F05EF8A7F1080521
:10202000314655F8240000F089F955F824000121C3
:1020300000F0FDF9BDE8FC817CB5002001F028FB33
:10204000002001F028FB01F0FBFA00214FF40060B2
:1020500001F03DFA824C00220821204601F0B4F83C
:1020600000220921204601F0AFF800220A21204673
:1020700001F0AAF800220B21204601F0A5F8002269
:102080000C21204601F0A0F8764D002202212846BE
:1020900001F09AF84FF47061009100218DF804105E
:1020A0008DF807106946204601F016F804210091CA
:1020B0006946284601F010F8A114009169462046AF
:1020C00001F00AF87CBD2DE9FC4101210E2001F050
:1020D000CEF9634E0C220821304601F075F80C222F
:1020E0000921304601F070F80C220A21304601F037
:1020F0006BF80C220B21304601F066F80C221146D9
:10210000304601F061F8574F0C220221384601F0A9
:102110005BF84FF47060009001248DF805400220B8
:102120008DF8040000258DF806508DF807406946AB
:10213000304600F0D1FF042100916946384600F096
:10214000CBFF200300908DF807506946304600F021
:10215000C3FFE00300908DF804508DF807406946F6
:10216000414800F0B9FF0121C80201F0B0F9012196
:10217000880501F07CF95DE730B58FB004463B4D32
:102180004FF0FA51284600F0F0FB0021284600F0FD
:102190007DFB284600F0B6FA4FF00060009034480E
:1021A000019002944020039000200490059029158E
:1021B0000691890007918900089109904FF44030F9
:1021C0000A9004200B9003200C9048020D90801080
:1021D0000E906946284600F020FB01221021284677
:1021E00000F0D4FB2021284600F068FB012128469E
:1021F00000F04CFB0FB030BD30B58FB004461B4D26
:102200004FF0FA51284600F0B0FB0021284600F0BC
:102210003DFB284600F076FA4FF00060009014482D
:1022200001900294002003900490059029150691D6
:10223000890007918900089109904FF440300A9075
:1022400004200B9003200C9048020D9080100E90FB
:10225000694628460EE0000078BD0008880000208E
:1022600000080240000C0240000402405864024092
:10227000802C014000F0D1FA01221021284600F004
:1022800085FB2021284600F019FB0121284600F09B
:10229000FDFAAFE710B5E649884209D101211020C7
:1022A00001F051F90021BDE81040102001F04BB9B8
:1022B000E04988420AD101214C04204601F037F957
:1022C0002046BDE81040002101F031B9DA498842CA
:1022D0000AD101218C04204601F029F92046BDE8ED
:1022E0001040002101F023B9D44988420AD10121CC
:1022F000CC04204601F01BF92046BDE81040002127
:1023000001F015B9CE4988420AD101210C052046B9
:1023100001F00DF92046BDE81040002101F007B999
:10232000C849884209D10121202001F00CF900217F
:10233000BDE81040202001F006B910BD7FB504466D
:102340000D46208A20F44051E88808432082A08965
:1023500041F20C618843A9882A8911436A890243A2
:102360001143A181A08A20F44071A8890843A0826A
:10237000684601F011F8AE48844202D0B148844268
:1023800001D1039800E00298A189090408D500EB67
:10239000C00101EB001029684900B0FBF1F007E033
:1023A00000EBC00101EB001029688900B0FBF1F0DF
:1023B0006422B0FBF2F109010B096FF018056B43C1
:1023C00000EB8300A3891D044FF0320307D503EB14
:1023D000C000B0FBF2F000F00700084306E003EB9A
:1023E0000010B0FBF2F000F00F00084320817FBD29
:1023F0004FF41651016000218180C18001810C22BF
:1024000042818181704710B5028A22F470630A8884
:102410004C8822438C88C9880C4322431A43028289
:1024200010BD0021018041808180C180704700295A
:1024300004D0818941F4005181817047818921F460
:10244000005181817047028B02F47F420283028B2C
:102450000A4302837047002904D0818941F4004176
:10246000818170478189C1F30E0181817047002904
:1024700004D0818A41F4006181827047818A21F40D
:10248000006181827047C1F30801818070478088B4
:10249000C0F308007047028A22F00F020282028A0B
:1024A0000A4302827047002904D0818941F0020169
:1024B00081817047818921F0020181817047828981
:1024C00022F40062828182890A4382817047028AF3
:1024D00022F020020282028A0A4302827047002907
:1024E00004D0018A41F4804101827047018A21F4BD
:1024F000804101827047818941F0010181817047EB
:10250000002904D0818A41F0080181827047818AC4
:1025100021F0080181827047028BD2B20283028BC4
:1025200042EA012101837047002904D0818A41F0E9
:10253000200181827047818A21F0200181827047C9
:10254000002904D0818A41F0100181827047818A7C
:1025500021F0100181827047828A22F00402828277
:10256000828A0A4382827047002904D0818A41F01E
:10257000020181827047818A21F0020181827047C5
:10258000002A03D0828A0A4382827047828A8A4361
:102590008282704710B540F66A13C1F3421301F00E
:1025A0001F040121A140012B07D0022B07D01430BA
:1025B0003AB102680A43026010BD0C30F8E71030EF
:1025C000F6E702688A43026010BD024600201288C6
:1025D0000A4200D0012070478A05C9430180704734
:1025E00070B5002440F66A12C1F3421301F01F05D2
:1025F000012606FA05F2012B0CD0022B0DD0838A9E
:102600001340090A8E40008830400BB100B101240C
:10261000204670BD83891340F3E7038A1340F0E737
:1026200040F66A120A0A01219140C94301807047AD
:10263000001001400044004000480040004C0040B1
:1026400000500040001401402B4908432B4908600A
:10265000704730B50F23C27801250178002A1FD0BA
:10266000264A126802F4E062C2F5E062C2F3072271
:10267000C2F10404D3404278A24084781C40144341
:10268000220101F1E02181F80024007800F01F010F
:102690008D404009800000F1E020C0F8005130BDBD
:1026A00001F01F0085404809800000F1E020C0F8DB
:1026B000805130BD124A114001431048001F016093
:1026C00070470E4A121D002903D0116801431160A2
:1026D000704711688143116070474FF0E021042872
:1026E00004D0086920F0040008617047086940F0D0
:1026F00004000861704700000000FA050CED00E0DE
:1027000080FFFF1F2DE9F043016821F00101016006
:102710000021016041608160C1600161212141614E
:10272000C149C14A10394FF03D08904203D1C1F868
:102730000880BDE8F083BC4A4FF4746518329042BB
:1027400001D18D60F5E7B84A4FF4741630329042EB
:1027500001D18E60EDE7B44A4FF074674832904281
:1027600001D18F60E5E7B04BB04A6033984201D1A8
:10277000CA60DEE7AC4CAE4B7834A04201D1CB60EE
:10278000D7E7DFF8A4C2AB4C0CF1900C604501D147
:10279000CC60CEE7DFF890924FF03D5C09F1A809DC
:1027A000484502D1C1F80CC0C3E7A349DFF88892BD
:1027B0000839484502D1C1F80080BAE7DFF87882CD
:1027C00008F11808404501D10D60B2E79A4D303547
:1027D000A84201D10E60ACE7974D4835A84201D11F
:1027E0000F60A6E7944D94496035091FA84201D1B6
:1027F0000A609EE7904A7832904201D10B6098E7D8
:102800008D4A9032904201D10C6092E78A4AA832F8
:1028100090428ED1C1F800C08BE730B50368874A7B
:102820001340CC680A682243D1E905452C43224372
:10283000CC6922430C6A22434C6A22438C6A2243AD
:102840004C6B22438C6B22431A430260426922F094
:102850000703D1E90B2422431A4342610A6942600B
:102860004A6882608968C16030BD002101604160B2
:102870008160C160016141618161C1610162416248
:102880008162C1620163416381637047002904D0A2
:10289000016841F0010101607047016821F0010108
:1028A00001607047002904D0016841F400410160D3
:1028B0007047016821F4004101607047002904D08D
:1028C000016841F0200101607047016821F020019A
:1028D0000160704741607047406880B27047002ACD
:1028E00004D0026842F40022026003E0026822F48D
:1028F0000022026001617047002904D0016841F4A0
:10290000802101607047016821F4802101607047D7
:10291000002A01D001617047C16070470146002064
:102920000968090300D501207047014600200968A5
:10293000C90700D001207047406900F03800704797
:10294000024600203C4B9A4202D2374A103A01E03C
:10295000394A103A8B0001D5526800E01268384BB2
:102960001A400A4200D001207047334A904202D2F6
:102970002D48103801E030481038314A8B0001EA08
:10298000020101D5C1607047816070470B0609D50F
:1029900022B1436943F08003436103E0436923F0BC
:1029A00080034361802905D001F01E011AB102683D
:1029B0000A430260704702688A430260704730B57C
:1029C00000241D4A904202D2174A103A01E01A4AE6
:1029D000103A1C4B194205D01E2303EAD125036887
:1029E0002B4002E0406900F08003880001D5506868
:1029F00000E01068124A1040084201D003B10124DF
:102A0000204630BD0C4A904202D20748103801E0FF
:102A1000094810380A4A8B0001EA020101D5C16059
:102A20007047816070470000106002403D00002048
:102A3000400F002000003D20106402403F801CF049
:102A40007D0F7D0F3C0F3C0F384900200860091DA9
:102A50000860091D0860091D0860344934481431B4
:102A60000860704730B5314A83790168002B2AD05D
:102A700013688B431360111D0B680468A3430B603C
:102A8000017911440B68046823430B60274C083418
:102A90002168036899432160231D19680568A943CB
:102AA00019604179102905D011440A680068024371
:102AB0000A6030BD2168026811432160196800680E
:102AC0000143196030BD0079104402688A430260F6
:102AD00030BD0021016001710C224271817170478B
:102AE000124910310A6802430A607047014600200B
:102AF0000E4A143212680A4200D0012070470B4976
:102B000014310860704701460020084A12680A40E4
:102B1000064B14331B680B4202D0002A00D0012060
:102B2000704702491431086070470000003C0140C2
:102B3000FFFF7F008100A1F1C04100280CD043F2CB
:102B4000D2020A60401C8000A0F1C0406FF07042C9
:102B50000260C1F8042170474FF0204343F2DB02CA
:102B60001A60EFE710B5D0E901121143D0E9032351
:102B70001A4311434269114382691143C2691143E7
:102B8000026A1143426A1143826A1143C26A1143C5
:102B9000026B114302689200A2F1C0421160816889
:102BA000082907D101688900A1F1C0410A6842F0F3
:102BB00040020A60416BD1E9002342EA03128B68AC
:102BC0008C891B0243EA04431A430B8A42EA0352EC
:102BD0000B7D896942EA03620A430168491C890046
:102BE000A1F1C0410A60C16AB1F5804F08D0006808
:102BF0006FF070418000A0F1C040C0F8041110BD1A
:102C0000816BD1E9002342EA03128B680C8A1B0214
:102C100043EA04531A430B7D896942EA0362006860
:102C20000A438000A0F1C040C0F8042110BD10B5D7
:102C300000210160022242608160C1600161416146
:102C40008161C1610162D202426252008262C1624C
:102C50000163436B0F221A60436B5A60446BFF237E
:102C6000A360446BE260446B2261446B6261446B1D
:102C7000A161846B2260846B6260846BA360836B50
:102C8000DA60836B1A61836B5A61806B816110BD5E
:102C90008000A0F1C040002904D0016841F001018A
:102CA000016070470168CE4A11400160704710B55D
:102CB000182440234FF020414FF0FC32102805D05B
:102CC00041F8804F4B608A60CA6010BD0C664B664D
:102CD0008A66CA6610BD30B5D0E901121143D0E949
:102CE00003231A431143426941EA4221826941EABE
:102CF000423141F00804C169D1E9002342EA0322CC
:102D00000B89097B1B0443EA01610A43016AD1E98B
:102D1000003543EA05230D89097B2D0445EA01614D
:102D20000B4301684FF02040102904D040F8804F39
:102D30008260C36030BD04668266C36630BD102108
:102D40000160002141608160C16001614161816178
:102D5000C269FC211160C2695160C2699160C26997
:102D6000D160026A1160026A5160026A9160006A71
:102D7000C16070474FF0204200290CD0102805D0C8
:102D800052F8800F40F0040010607047106E40F061
:102D90000400106670479249C91E102804D052F8EA
:102DA000800F084010607047106E08401066704732
:102DB0004FF0204200290CD0102805D052F8800F87
:102DC00040F0400010607047106E40F04000106608
:102DD000704783493F39102804D052F8800F0840CB
:102DE00010607047106E0840106670474FF0204129
:102DF000102802D0D1F894007047486F7047794886
:102E000018210160002141604FF0FC318160C160F8
:102E10000161704710B5D0E9001241EA4221826891
:102E2000102343EA423211436E4A1160C168D1E96E
:102E3000003443EA04230C89097B240444EA016139
:102E40000B4393600169D1E9003443EA04230C8900
:102E5000097B240444EA01610B43D3604069D0E953
:102E6000001341EA03210389007B1B0443EA00604D
:102E70000143116110BD0021016041608160C268A1
:102E8000FC211160C2685160C2689160C268D16063
:102E90000269116002695160026991600269D16042
:102EA0004269116042695160426991604069C16044
:102EB00070474FF02041002805D051F8A00F40F096
:102EC00004000860704751F8A00F454AD21E104018
:102ED0000860704710B54FF480744FF02043002A0B
:102EE00011D0102806D0A04208D153F8840F08430F
:102EF000186010BD586E0843586610BD53F8A40FF3
:102F00000843186010BD102806D0A04208D153F81D
:102F1000840F8843186010BD586E8843586610BDF2
:102F200053F8A40F8843186010BD034600204FF0EB
:102F30002042102B08D0B3F5807F07D0D2F8A42010
:102F40000A4200D001207047526EF9E7D2F884207F
:102F5000F6E74FF02042102807D0B0F5807F08D068
:102F600052F8A40F884310607047506E8843506633
:102F7000704752F8840F8843106070470346002062
:102F80004FF02042102B0ED0B3F5807F0DD0D2F839
:102F9000A42002EA010302EAD101002B02D0002999
:102FA00000D001207047526EF3E7D2F88420F0E79A
:102FB0004FF02042102808D0B0F5807F0AD052F898
:102FC000A40F20EAD10010607047506E20EAD100B3
:102FD0005066704752F8840F20EAD10010607047A5
:102FE000FEFF0F00A00000A010B57F49884209D164
:102FF0000121084600F077FA0021BDE810400120C9
:1030000000F071BA7949884209D10121022000F00B
:103010006AFA0021BDE81040022000F064BA744949
:10302000884209D10121042000F05DFA0021BDE8A9
:103030001040042000F057BA6E49884209D101219E
:10304000082000F050FA0021BDE81040082000F0F0
:103050004ABA6949884209D10121102000F043FA97
:103060000021BDE81040102000F03DBA63498842BD
:1030700009D10121202000F036FA0021BDE81040DE
:10308000202000F030BA5E49884209D10121402059
:1030900000F029FA0021BDE81040402000F023BADA
:1030A0005849884209D10121802000F01CFA0021F2
:1030B000BDE81040802000F016BA534988420AD17A
:1030C00084150121204600F00EFA2046BDE810408C
:1030D000002100F008BA10BD2DE9F04100220127BF
:1030E0004FF0030C07FA02F50B682B40AB422CD1D2
:1030F000066853000CFA03F4A64306600E79D0F874
:1031000000809E4046EA080606600E79012E01D036
:10311000022E12D18668A64386604E79D0F80880C8
:103120009E4046EA080686604668AE4346604568AB
:103130008E799640B6B235434560C568A543C560F3
:10314000CC799C40C3681C43C460521C102AC9D36C
:10315000BDE8F0814FF6FF710160002101714171FE
:103160008171C171704708B541F480320092009AB4
:10317000C261C1610099C161C169C069009008BDA7
:103180000246002012690A4200D0012070470069FF
:1031900080B270470246002052690A4200D00120E6
:1031A0007047406980B27047018370474183704720
:1031B000002A01D001837047418370474161704705
:1031C00042694A404261704710B54B07DB0E9A4096
:1031D000C90800EB8100016A0F249C40A1430162F1
:1031E000016A1143016210BD000002400004024068
:1031F00000080240000C024000100240001402408F
:1032000000180240001C024000200240F8480168FB
:1032100041F001010160F64A0021083211600268A4
:10322000F44B1A400260031DF34A1A60026822F44C
:1032300080220260EE480C3001607047EC490022A9
:10324000891C0A7008707047024600205109012944
:103250000CD002290DD0E6497431096802F01F0232
:10326000012393400B4200D001207047E0490968D8
:10327000F4E7DF4970310968F0E718B500200090E5
:103280004FF4A0443120FFF7DFFF0099491C009163
:103290000099A14201D00028F4D03120FFF7D4FFDB
:1032A00008B1012018BD002018BDD14A116821F0D5
:1032B000F80141EAC00010607047D04908607047CB
:1032C000CB49002270310A700A70012804D004280A
:1032D00001D1052008707047012008707047C84967
:1032E0000860704710B5029C41EA82114FF0FF322E
:1032F00002EB530241EA0241014341EA0460BC4946
:10330000091D086010BDBD4908667047800140EA8C
:103310000170B749843108607047B84988667047C2
:10332000B649C8647047B24B08331A6822F0EC62A1
:103330000843104318607047AD4B08331A6822F0F9
:1033400078420843104318607047A94A0832116850
:1033500021F00301014311607047A548083000685F
:1033600000F00C007047A24A0832116821F0F00109
:103370000143116070479E4A0832116821F4E05100
:103380000143116070479A4A0832116821F4604184
:1033900041EAC0001060704770B5954B083319685A
:1033A00001F00C01974C00291ED0661004291DD095
:1033B00008291DD00460196801F0F0010909924A3A
:1033C000545C0168E14041601C6804F4E054A40AC4
:1033D000145D21FA04F484601B6803F460435B0B02
:1033E000D25CD140C16070BD0460E4E70660E2E7F2
:1033F0007F4A121D1168C1F38055116801F03F0129
:1034000035B1B6FBF1F11468C4F38814614305E0EB
:10341000B4FBF1F11468C4F3881461431268C2F379
:103420000142521C5200B1FBF2F10160C3E7C0F34C
:103430000121032908D16E4B0833196821F4F812D1
:103440007249014011431960694A70321168C0F332
:103450000B000143116070476949443908607047A7
:103460006749403908607047694908607047604A99
:103470003032002903D01168014311607047116890
:103480008143116070475A4A3432002903D01168D1
:103490000143116070471168814311607047544ABD
:1034A0003832002903D01168014311607047116858
:1034B0008143116070474E4A4032002903D01168A1
:1034C0000143116070471168814311607047484A99
:1034D0004432002903D0116801431160704711681C
:1034E000814311607047424A1032002903D01168AD
:1034F00001431160704711688143116070473C4A75
:103500001432002903D0116801431160704711681B
:10351000814311607047364A1832002903D0116880
:103520000143116070471168814311607047304A50
:103530002032002903D011680143116070471168DF
:103540008143116070472A4A2432002903D0116850
:103550000143116070471168814311607047244A2C
:103560005032002903D0116801431160704711687F
:103570008143116070471E4A5432002903D01168FC
:103580000143116070471168814311607047184A08
:103590005832002903D01168014311607047116847
:1035A000814311607047124A6032002903D01168CC
:1035B00001431160704711688143116070470C4AE4
:1035C0006432002903D0116801431160704711680B
:1035D000814311607047064A0D32002903D01178EB
:1035E00001431170704711788143117070470000DA
:1035F00000380240FFFFF6FE103000240000474272
:10360000800E47420024F40098000020FFFCFF0FCA
:103610005C0147420948016841F080710160E5E7BB
:1036200001460020054A683A12680A42DED00120AD
:10363000DCE7024966390870D8E7000074380240B8
:1036400010B50121CC022046FFF77DFF2046BDE8E2
:1036500010400021FFF777BF30B5644B196847F67B
:10366000FF629143027D8468C568224344682C430D
:10367000224304680069224302430A431A6030BDB2
:1036800000210175016041608160C1600161704786
:103690005749086070475549091F086070475348EB
:1036A000001F006800F00300704710B54F4A016822
:1036B000121D1160141D21686FF30A01D0E9012366
:1036C0001A43D0E9033003431A430A43226010BD72
:1036D0000021016041608160C16001617047434821
:1036E0000C300068C0B2704708B54049103108443A
:1036F00000900098006808BD10B53C4A016820326F
:103700001160121D41681160141D216821F0F7013C
:10371000D0E902231A43D0E9043003431A430A4391
:10372000226010BD4FF0FF310160002141608160D7
:10373000C1600161416170472C482C3000687047BE
:103740002A487C300068704728497C3108607047FF
:10375000264844300068704726490860704725496C
:10376000091D0860704723490831086070472149E6
:103770000C31086070472049086070471E49091DD8
:1037800008607047012181431B4808300160704781
:1037900019490C31086070471649143908607047A0
:1037A000124A3832002903D0116801431160704772
:1037B0001168814311607047014600200B4A303286
:1037C00012680A4200D0012070470849343108606D
:1037D000704701460020054A303212680A4200D084
:1037E000012070470149343108607047042C0140C2
:1037F000A0802542A0852542AC81254210B501213B
:103800008C032046FFF79FFE2046BDE810400021B4
:10381000FFF799BE11490860704710B58A07120F6B
:103820000F23934021F003040D49214401F60801C0
:103830000C689C430C600B68904003430B6010BD08
:10384000084908607047084908607047002003492C
:1038500020310968C90500D50120704700380140B2
:1038600000300140DC0027420004274210B5C74960
:1038700088420AD1841401212046FFF764FE2046C5
:10388000BDE810400021FFF75EBEC14988420AD161
:10389000041401212046FFF74AFE2046BDE81040EF
:1038A0000021FFF744BEBB4988420AD1C41301215D
:1038B0002046FFF73CFE2046BDE810400021FFF700
:1038C00036BE10BD30B5028802F441530A884C88D8
:1038D000CD8822438C882C4322430C8922434C8977
:1038E00022438C892243CC8922431A430280828B53
:1038F00022F400628283098A018230BDF0B502227F
:1039000000230124858B4FF2400635408583022534
:103910000584858B8E68022E38D08A8802B10224F5
:103920009D4A13681B0203D5136823F40003136038
:10393000994A7C321368C3F388131268C2F3027683
:10394000954A121F126802F03F02944FB7FBF2F241
:103950005A43B2FBF6F2CB88B3F5007F2BD063015C
:10396000B2FBF3F202EB82028B685200B2FBF3F27D
:10397000521D92B20A23B2FBF3F202F00103D21AF3
:10398000C2F34F024FF6FF7404EA0323941EFE2C89
:1039900001D302220023CC881A43144304840A88EA
:1039A0004B881A438B8889890B431A432A4342F474
:1039B00000618183F0BD120A02EB82028B68520023
:1039C000B2FBF3F2521D92B2D4E700210180418094
:1039D0008180C180018141818181C1810721018272
:1039E00070470021018041808180C1800222826075
:1039F00081817047002904D0018841F04001018095
:103A00007047018821F0400101807047002904D0EF
:103A1000818B41F4806181837047818B21F48061C7
:103A200081837047028822F40062028002880A4380
:103A300002807047B1F5804F04D0018821F48041A5
:103A400001807047018841F4804101807047A1F5F1
:103A50007E42FF3A04D0018841F4807101807047B2
:103A6000018821F4807101807047002904D0818889
:103A700041F0040181807047818821F00401818038
:103A80007047002904D0818841F01001818070477F
:103A9000818821F010018180704730B50023828B2E
:103AA0004FF240042240828302220284848B0A88DF
:103AB0004FF48075B2F5007F00D002B92B464A88DA
:103AC0008D8889892A4319430A43224342F40061BD
:103AD000818330BD8089704781817047002904D07F
:103AE000018841F4005101807047018821F40051A0
:103AF00001807047018841F480510180704701299D
:103B000001D0008B7047808A7047008A7047002A76
:103B100003D082880A438280704782888A438280E9
:103B20007047090901238B4099B2002A03D082888B
:103B30000A438280704782888A43828070470246A7
:103B4000002012890A4200D001207047C943018138
:103B5000704730B50246002001F00F03012505FA39
:103B600003F4A3B2090905FA01F4A4B29188214033
:103B700012891A4202D0002900D0012030BD01F084
:103B80000F0201219140C94301817047003001407B
:103B900000380040003C00400838024000127A0023
:103BA00001B581B00198009002E00098401E00909D
:103BB00000980028F9D10CBD10B501214C06204613
:103BC000FFF791FC2046BDE810400021FFF78BBCB9
:103BD00001210160002141608160C16001614FF4F9
:103BE000804242618161C161D210026241628162A0
:103BF000C162016341638163C16340220264202288
:103C000042648164C164016541658165C165016685
:103C1000802242668166C166016741678167C1672C
:103C2000D204C0F880205210C0F88420C0F8881058
:103C30001311C0F88C30C0F89010C0F89410C0F880
:103C40009810C0F89C10C0F8A010C0F8A420521220
:103C5000C0F8A8209201C0F8AC205212C0F8B020E1
:103C6000C0F8B410C0F8B810704738B500230093FE
:103C7000FB4B1C6904F01C054FF6FF7404EAC024DA
:103C80002C434FF4F86000EA8110204340F002001A
:103C900040F001005A611861F2490098401C009000
:103CA0001869C00702D000988842F6D3009888426D
:103CB00001D1002038BD012038BD18B50022009286
:103CC000E74A136903F01C044FF6FF7303EAC023AD
:103CD00023434FF4F86000EA8110184320F00200FB
:103CE00040F001001061DF490098401C009010690D
:103CF000C00702D000988842F6D30098884201D1CC
:103D0000002018BD506980B218BD2DE9F04186B081
:103D100004468846002705970097D14E306920F069
:103D20001C0501A8FFF738FB0298CF49CF4A014490
:103D3000914202D245F0080516E0CD49CD4A014432
:103D4000914202D245F00C050EE0CB49CB4A01442A
:103D5000914209D3CA490844CA49884202D245F06F
:103D6000040501E045F0100535614FF400420021E3
:103D70004046FFF77AFFC0B1C348FFF711FF206844
:103D800080B3B84D0098401C009001214046FFF7D9
:103D900094FF400702D40098A842F3D30098A842A9
:103DA00005D1002006B0BDE8F0810020FAE70097B9
:103DB0004FF4805200214046FFF757FF08B900201A
:103DC000F0E70098401C009001214046FFF775FF86
:103DD000800602D40098A842F3D30098A84202D1EA
:103DE0000020DFE71DE000971F214046FFF765FF39
:103DF00000F01C00042811D04FF48042082807D09E
:103E0000D1100E2807D012281CD12162626119E05E
:103E10002762626116E02162676113E027626761D1
:103E200010E0206A0021C0F3CF026069C0F34F00A8
:103E300002434046FFF719FF00287CD06FF07F4017
:103E4000FFF7AEFE306891490840D4E901121143F2
:103E5000E26854F8103F1A43114362681143A268A4
:103E60001143E26811432269114362691143A26957
:103E70001143E2691143226A1143626A1434114307
:103E80000143316054F8140F61680843D4E9021209
:103E9000114308432169084361690843A169084344
:103EA000E16908437060206AB060606AF060B069E0
:103EB0004FF641710840D4E90B121143238D626B18
:103EC00042EA03421143A26B1143E26B11430143E7
:103ED000B161D4E910010843F0616D4881696D4A10
:103EE0001140D4E912231A43D4E914352B431A4361
:103EF000A36D1A43E36D1A43236E1A43636E1A438C
:103F0000A36E1A430A438261D4E91B121143626F04
:103F100054F8783F1A431143626841EA8201A2686B
:103F2000114341F400010160016841F0800101602A
:103F3000012037E7FFE7002034E75549002804D087
:103F4000886940F0020088617047886920F00200AB
:103F5000886170474E49002804D0886940F40050B9
:103F600088617047886920F40050886170473C4937
:103F7000002804D0086840F0040008607047086812
:103F800020F00400086070474148816941F48011C5
:103F9000816170473249002804D0086840F0080069
:103FA00008607047086820F008000860704700B596
:103FB0000120FFF7EFFFFFF7E7FF0120FFF7D7FF33
:103FC0000120FFF7C7FF01205DF804EBB5E70020F3
:103FD00023498969C90700D00120704720488169B9
:103FE00041F00101816170471D49002804D08869B2
:103FF00040F0010088617047886920F00100886105
:10400000704701460020164A926B0A4200D00120F8
:10401000704701460020124A926B0A4200D00120EC
:1040200070470F4A002903D0D16B8143D163704799
:10403000D16B0143D16370470A794B7942EA03227D
:10404000074B184402640A78CB7842EA03628B7803
:1040500049781B0443EA01210A4342647047000087
:1040600000800240FFFF040000D3CEFEC0E1E40068
:1040700040F1E9FD40787D0100796CFC005A620254
:10408000001F0AFA80F0FA02FFFF0F000F8120FFE5
:1040900000900240233FDEF8F94A0244106C030A04
:1040A0004B710871506C020ECA70020C8A70020AC1
:1040B0004A700870D2E7F24A0029104404D0016C1B
:1040C00041F000410164C9E7016C21F00041016445
:1040D000C4E7EB4A0829104404D0016C41F0804148
:1040E0000164BBE7016C21F080410164B6E7E44A5A
:1040F0001044026C22F07C520264026C0A43026497
:10410000ACE71EB5002101910291DE4B59680A68A7
:10411000C2F30D42121F00929A689468012C03D9D1
:1041200012689268019201E08A6801920291C9685E
:1041300059609DE80E000EC01EBD1FB50021019103
:10414000029103910091CF4B99681AE0009C641C86
:1041500000941468A40509D51468E40506D40A601F
:1041600001228A605A68D2685A600AE01468E4053D
:1041700012D41468A4050FD48C68641C8C60D268B7
:104180005A605A681468002C02DB009C052CDDD3B1
:1041900001A90EC90EC01FBD5C684C608C68641C10
:1041A0008C608C68012C00D10A605A681468C4F3D2
:1041B0000D44241F01948C68012C03D90968896877
:1041C000029101E0916802910392D168596001A9BE
:1041D0000EC90EC01FBDF0B50023AA4D29680A689C
:1041E000002A01DA0020F0BD40F2F456B04208D9AE
:1041F000B0FBF6F2B0FBF6F406FB140414B1521C4B
:1042000000E00122012A2CD10A6842F040520A60E3
:10421000C0F30C004860086840F000400860C868BF
:10422000286021E023B92C68276847F08057276071
:104230004E60541EA3420ED10C6844F000540C6032
:10424000C2F10104C4EBC41404EB440400EB840485
:10425000C4F30C044C600C6844F000440C60C96862
:104260005B1C9342DED3296087484169490703D527
:1042700004214161002141600120F0BD2DE9F041A0
:104280000023804F78604FF0004C44F2F458561EE3
:1042900014E000EB4314C4F800C0C4F80480C3EB7E
:1042A000C31505EB450501EB8505A560B34203D2B7
:1042B00004F12005E56000E0E0605B1C9342E8D378
:1042C0007149C8607148B8606DE56E4A506803680E
:1042D0001146002B896808DB0368DB0505D54860BB
:1042E0008868401C88600120B8E60368002B0EDB5C
:1042F00003689B050BD50368DB0508D40860002024
:104300004860012088605068C06850600DE0036814
:10431000002B0ADB03689B0507D40368DB0504D484
:104320008B685B1C8B60C0685060002096E6F0B51F
:104330000023544C20604FF48017561E11E000EB10
:1043400043142760C3EBC31505EB450501EB850559
:10435000A560B34203D204F12005E56000E0E0600F
:104360005B1C9342EBD348490861F0BD0246002034
:1043700012680A4200D0012070E60068C0F3C30052
:104380006CE6016841F00041016067E6002904D055
:10439000016841F08041016060E6016821F08041E0
:1043A00001605BE602680A43026057E602680A435E
:1043B000026053E6002904D0016821F00061016029
:1043C0004CE6016841F00061016047E6002904D035
:1043D000016841F48011016040E6016821F4801118
:1043E00001603BE6002904D0016821F08061016092
:1043F00034E6016841F0806101602FE6436841EADC
:1044000002410B43436029E60246002012680A423B
:1044100000D0012022E60246002012690A4200D0A4
:1044200001201BE6016841F00041016016E60068CA
:10443000C0F30D4012E64268002903D022F000418B
:1044400041600BE642F00041416007E64068002908
:1044500002D0C0F30C4001E6C0F30C00FEE500B54D
:1044600000210268002A08DB0268120405D40268F1
:10447000D20502D5FFF7DBFF0146084600BD00006C
:1044800000800240A800002000900240C03E0020B2
:10449000AC49002804D0086840F080000860DDE5E1
:1044A000086820F080000860D8E5A648016841F05F
:1044B00001010160D2E50020A2490968C90700D0C6
:1044C0000120CBE5014600209E4A52690A4200D0F5
:1044D0000120C3E59B494861C0E59A4A002903D001
:1044E000D1690143D161B9E5D1698143D161B5E5B4
:1044F00001460020934A52690A4200D00120ADE5EE
:1045000090494861AAE58F48406900F00100A5E59F
:104510008C48406900F04000A0E500208949896985
:10452000C90200D5012099E501460020854A126A9A
:104530000A4200D0012091E58248006AC0F34A4057
:104540008CE58048006A80B288E57E48806C85E50D
:104550007C48C06C82E57B48006D7FE57948406D02
:104560007CE578490020486078E57649002088603D
:1045700074E57449486271E530B505460C46002182
:104580002846FFF79AFB14B140F4804201E020F482
:10459000804200212846FFF768FB08B1012030BDAA
:1045A000002030BD6848C16A41F00041C16255E554
:1045B0000021654A50F821309362491C0829F9D33B
:1045C0004CE56149002804D0C86A40F40070C86214
:1045D00044E5C86A20F40070C8623FE50146002047
:1045E000594AD26A0A4200D0012037E556490028CC
:1045F00004D0C86A40F00400C8622FE5C86A20F001
:104600000400C8622AE55049002804D0C86A40F076
:104610000200C86222E5C86A20F00200C8621DE5F7
:104620004949002804D0C86A40F00100C86215E575
:10463000C86A20F00100C86210E54448016841F0F2
:10464000300101600AE54148016821F02001016064
:10465000016841F01001016000E53B49002806D0E7
:10466000D1F8000140F00800C1F80001F6E4D1F8EB
:10467000000120F00800C1F80001EFE432490028F1
:1046800006D0D1F8000140F00400C1F80001E5E4D3
:10469000D1F8000120F00400C1F80001DEE42A494D
:1046A000002806D0D1F8000120F00200C1F8000176
:1046B000D4E4D1F8000140F00200C1F80001CDE4DB
:1046C0002248016841F001010160C7E41E4AC300AD
:1046D0000ED520F0805029B1D2F80C118143C2F8D8
:1046E0000C11BBE4D2F80C110143C2F80C11B5E473
:1046F00029B1D2F810118143C2F81011AEE4D2F8FA
:1047000010110143C2F81011A8E400210E4AC300A1
:1047100009D5D2F8043103420ED0D2F80C2102425E
:104720000AD1012108E0D2F80831034204D0D2F8BE
:104730000C21024200D1012108468FE40249405871
:104740008CE40000009002400080024000810240A2
:1047500070B50446062004F82A0F0220607000207D
:10476000A070E07020716071A0712A3C04F12B01EF
:10477000FFF762FC40F2DC502085322084F83100E3
:10478000052249494948FFF7D2FD052248494948D1
:10479000FFF774FD0024454D4FF4400605EB44102F
:1047A0003146FFF703FE641C052CF7DBBDE87040C3
:1047B000FFF7FDBB70B50C4600253F4800688668D2
:1047C00007E062897019616805F0FEF960890544A7
:1047D0002468002CF5D1A8B2FFF7FDFC002070BDC5
:1047E000F0B587B0002501A8FFF78BFC01A804AB4A
:1047F00007C807C3049881B2059F0322104601F041
:10480000D0F9064630000BD0344607E062897919AA
:10481000606805F0D9F9608905442468002CF5D159
:10482000264A10688168012901D9006800E00698CD
:1048300000214FF0004302E00360C068491C146887
:10484000A4688C42F8D81068002181601C48426935
:10485000120602D580224261816007B03046F0BD69
:1048600070B505462846FFF7BBFF044654B12A69D8
:10487000294620469047054615B1204601F068F9C3
:10488000284670BD4FF0FF3070BD10B5732180F821
:104890003210742180F833100A4941610A4981615C
:1048A000FFF756FF002010BDFC20002098020020DA
:1048B00038030020F8010020A8000020B0000020EC
:1048C000009002408F9A0008B547000810B50028F4
:1048D00009D0046A002C06D0606908B101F038F9EB
:1048E00000206061A06110BD002812D0818BFF23E1
:1048F0004A1C82838269F0315354002304E04A1C2D
:1049000082838269F0315354818B4429F7D38A071B
:10491000F5D17047828B531C83838069F0328154B8
:10492000704710B5838B5C1C84838469F033E15439
:10493000818B4B1C83838069F031425410BD10B5CC
:10494000828B0C0A531C83838369F0329C54828BC4
:10495000531C83838069F032815410BD70B50546C5
:10496000002D0DD02C6A74B100224FF49A711046BC
:1049700001F017F9606148B1E27CF9494AB10BE0F6
:104980006FF0090070BD6FF0080070BD4FF0FF3090
:1049900070BD0A68521C0A60096821604068A06105
:1049A00001210170A0694170A16906208870A06989
:1049B0000026C670206803F0E1FFA1694860A06985
:1049C0000681A0694681A069C660A07C0A2803D040
:1049D000052801D0042802D1A1696868C860A069CF
:1049E0000661A0694661A0698661002195F82A00E8
:1049F000884203D9681890F82B0000E00020A369D2
:104A000001F11C029854491C89B21029EED30020F0
:104A1000A26900F12C015654401C80B24028F7D303
:104A20000020A26900F16C015654401C80B280281D
:104A3000F7D3CC4803F0A2FFA169C1F8EC00A6832C
:104A40000020A26900F1F0015054401C80B24428BB
:104A5000F7D3002070BD827C8A4202D0817400218D
:104A6000C1747047F8B505462C6ABF480068A0625B
:104A700006212046FFF7EFFF2846FFF76FFF0646A7
:104A8000300039D1012235212046FFF74AFF0121AC
:104A90002046FFF73FFF022239212046FFF741FF62
:104AA000298D2046FFF74BFF042237212046FFF7D0
:104AB00038FF01212046FFF72DFF03212046FFF795
:104AC00029FF1C212046FFF725FF06212046FFF77E
:104AD00021FF2046FFF708FFA08BF03081B260690C
:104AE00001F0F4F800954323A04A6169606803F07F
:104AF00006FC2846FFF7EAFEE07C401CC1B2E174E8
:104B0000062902D20120884000E03C2000EB400151
:104B1000C1EBC0104FF6FF7101EAC00000F2F310C4
:104B20004FF4FA71B0FBF1F0E0833046F8BD70B598
:104B30000446256A204600F0F7FF8B49204600F026
:104B400047FF8949204600F035FF8749204600F09D
:104B500038FF0C212846FFF77EFF2046BDE8704055
:104B600080E770B505462C6A08212046FFF773FFE1
:104B7000002204F12801284604F0FEFEE07C401CDF
:104B8000E0744FF4FA7040F2E731B1FBF0F0E083EB
:104B900070BD10B5828B0C0E531C83838369F03279
:104BA0009C54828B0C0C531C83838369F0329C547D
:104BB000828B0C0A531C83838369F0329C54828B52
:104BC000531C83838069F032815410BDF8B50546CB
:104BD0002C6A01212046FFF73EFF2846FFF7BEFE64
:104BE0000646300051D1012235212046FFF799FEBB
:104BF00003212046FFF78EFE022239212046FFF7CF
:104C000090FE298D2046FFF79AFE0422322120468D
:104C1000FFF787FEA06A03F085FF01462046FFF7F5
:104C2000B8FF042236212046FFF77BFE606A03F0BE
:104C300079FF01462046FFF7ACFF042237212046CA
:104C4000FFF76FFE01212046FFF764FE0321204697
:104C5000FFF760FE1C212046FFF75CFE0621204680
:104C6000FFF758FE2046FFF73FFEA08BF03081B2E1
:104C7000606901F02BF8009543233C4A6169606844
:104C800003F03DFB2846FFF721FEE07C401CC1B24B
:104C9000E174062902D20120884000E03C2000EBAC
:104CA0004001C1EBC0104FF6FF7101EAC00000F2F5
:104CB000F3104FF4FA71B0FBF1F0E0833046F8BD29
:104CC00001780906427841EA0241827841EA0221EC
:104CD000C0780843704770B50024C368002B3CD0EF
:104CE000068A76B3002211E0342D03D08D4207D11D
:104CF000981870BD921C94B2621C92B21C5D05E0C3
:104D0000521C92B29D5C521C2A4492B2964202D925
:104D10009D5CFF2DE8D1A4B1012C06D0022C08D057
:104D200082682C32C024002012E082686C32802419
:104D3000F9E782682C324024F5E78B4202D1104417
:104D400070BD0AE0401C80B2135C401C184480B265
:104D5000A04202D2135CFF2BEFD10020F0E700004D
:104D6000B400002063538263C0BD0008C4BD0008C6
:104D700070B505462C6A36212046FFF7ACFF0028A7
:104D8000DED0801CFFF79CFF03F0F8FD6062A06896
:104D900010F1100F05D00069A0622846BDE87040F0
:104DA00014E70020F8E7CBE7F8B505462C6A0521A3
:104DB0002046FFF750FE2846FFF7D0FD064630009C
:104DC00025D1012235212046FFF7ABFD03212046E6
:104DD000FFF7A0FD022239212046FFF7A2FD298D11
:104DE0002046FFF7ACFD2046FFF77EFDA08BF0309C
:104DF00081B2606900F06AFF0095432304F1240248
:104E00006169606803F07BFA2846FFF75FFDE07C8C
:104E1000401CC0B2E0740A2803D24FF4FA61484340
:104E200001E044F6206080B200F2F3104FF4FA7112
:104E3000B0FBF1F0E0833046F8BD016A897C0129BE
:104E400003D00A2901D0052900D1ADE77047F8B594
:104E500005462C6A04212046FFF7FDFD2846FFF792
:104E60007DFD0646300024D1012235212046FFF782
:104E700058FD03212046FFF74DFD0222392120462F
:104E8000FFF74FFD298D2046FFF759FD2046FFF71C
:104E90002BFDA08BF03081B2606900F017FF009508
:104EA0004323F94A6169606803F029FA2846FFF74D
:104EB0000DFDE07C401CC0B2E0740A2803D24FF420
:104EC0007A71484301E042F2107080B200F2F310B0
:104ED0004FF4FA71B0FBF1F0E0833046F8BD016A9F
:104EE000897C012903D00A2901D0052900D1AEE728
:104EF000704710B5E548046815E0206A90B1418C10
:104F00004A1E4284012906D0216A088C421E0A8466
:104F1000012804D006E02046FFF7E1FF02E020462A
:104F2000FFF78BFF2468002CE7D110BDF8B50646CB
:104F3000346A03212046FFF78EFD3046FFF70EFD51
:104F40000546280031D1012235212046FFF7E9FC32
:104F500003212046FFF7DEFC022239212046FFF71D
:104F6000E0FC4FF410712046FFF7E9FC04223221E7
:104F70002046FFF7D6FCA06A03F0D4FD0146204688
:104F8000FFF707FE2046FFF7AFFCA08BF03081B2A1
:104F9000606900F09BFE00964323BB4A616960682C
:104FA00003F0ADF93046FFF791FCE07C401CC0B245
:104FB000E0740A2803D24FF47A71484301E042F2C8
:104FC000107080B200F2F3104FF4FA71B0FBF1F000
:104FD000E0832846F8BDF8B505462C6A0D21204629
:104FE000FFF739FD00206062E062A0626063206329
:104FF000E064A0646064A0632846FFF7AFFC064647
:1050000030001CD1012235212046FFF78AFC072100
:105010002046FFF77FFC2046FFF766FCA08BF030B0
:1050200081B2606900F052FE0095432304F124022E
:105030006169606803F063F92846FFF747FCE07C8C
:10504000401CC0B2E0740A2803D24FF47A7148437E
:1050500001E042F2107080B200F2F3104FF4FA71E6
:10506000B0FBF1F0E083284600F05EFD8849284659
:1050700000F0AEFC8649284600F09CFC8449284696
:1050800000F09FFC3046F8BD2DE9FC410546002D9F
:105090006BD02C6A002C68D0A06C4FF03C01471CF0
:1050A0004FF480364FF6FF734FF0010209D01E30E7
:1050B000B0FBF1F0B04200D3184680B2208400B9B2
:1050C0002284E06C471C09D01E30B0FBF1F1B142E4
:1050D00000D3194688B2608400B9628414F12C0FA1
:1050E00003D0E06A019010B118E00020FAE703F065
:1050F00019FD000E7F2805D84FF07F4003F03EFCDD
:1051000001900BE0C02805D36FF0FF0003F036FCE0
:10511000019003E05F4803F031FC019014F1300F7F
:1051200003D0206B009010B10BE00020FAE7A06ADA
:10513000019908400090012003F020FC00990843E9
:10514000009004F12801284600F042FC01A92846FD
:1051500000F037FC6946284600F02CFC284600F099
:10516000D5FC0A212046FFF776FCBDE8FC8110B58E
:105170000446226A917C0C2912D0062910D00129FC
:1051800012D008291ED0052927D0042929D00329A7
:1051900039D1D07C022832D22046BDE81040C5E685
:1051A0002046BDE810405DE4D07C052803D82046A9
:1051B000BDE810400AE52046FFF70DFF2046BDE898
:1051C00010404FE4D07C012803D82046BDE81040B1
:1051D000C7E42046BDE8104056E72046BDE8104031
:1051E000E2E5D07C082803D82046BDE810402EE632
:1051F0002046FFF7F0FE2046BDE8104032E420468E
:10520000BDE810402EE410BD70B5204804680025AC
:105210000EE0206A58B1C18B012903D9A1F1010127
:10522000C18304E003D1C5832046FFF7A0FF2468B3
:10523000002CEED184E50078704770B5046A002038
:10524000E0622063606333212046FFF744FD18B11C
:10525000801CFFF735FD60643A212046FFF73BFDD7
:1052600020B1801CFFF72CFDA06402E0606C4008B8
:10527000A0643B212046FFF72EFD68B1801CFFF79C
:105280001FFDE0640AE00000C4BD0008CC0000205F
:10529000C0BD00080000FFFF606CE064A06810F172
:1052A000100F34D00069A06201212046FFF713FDE2
:1052B00028B1801CFFF704FD03F060FBE0620321CE
:1052C0002046FFF708FD28B1801CFFF7F9FC03F02A
:1052D00055FB20631C212046FFF7FDFC28B1801CF4
:1052E000FFF7EEFC03F04AFB606306212046FFF760
:1052F000F2FC064630001BD0701CFFF79CFF8008B4
:10530000A063022801D90220A06300250DE000203F
:10531000C9E706EB8500801CFFF7D2FC03F02EFBEB
:1053200004EB8501C8636D1CEDB2A06BA842F0D8F8
:1053300006E570B50446256A002C11D094F83100BA
:1053400020F0080084F83100002D09D0686800269C
:1053500010B103F078F86E60284600F006FA266275
:10536000EEE470B504460025A068002802D000F0E5
:10537000FCF9A560E068002803D000F0F6F9E560CC
:105380002582DDE42DE9F04104460E46002C23D0B1
:105390002046FFF7E6FF308900256F1EF02806D96A
:1053A000F03880B2208200F055FAE060B8B1F02009
:1053B00000F050FAA060A8B101460023F022304668
:1053C00000F06BFDE16821B1228AF023304600F045
:1053D00064FD0020BDE8F0816FF00900FAE7258246
:1053E0003846F7E7E06818B100F0BFF9E5602582BC
:1053F0003846EFE72DE9F041054616462C6A7368FA
:1054000070892C2859D31878022856D1002095F895
:105410002A1008E02A181F1892F82B203F7FBA4262
:105420004BD1401CC0B28142F4D8586803F07AFBDB
:105430002168884241D131462046FFF7A3FF18BBBF
:1054400035212046FFF747FCF0B1801CFFF7F3FE43
:105450000027052802D0062817D01FE0A07C0128CD
:1054600006D003280CD004280AD0052808D024E050
:105470002846FFF7E2FEE7832846FFF772FB1CE0B1
:10548000E7832846FFF700FE17E0A37C032B08D034
:10549000012B06D0042B04D0052B02D0022805D006
:1054A0000BE0E7832846FFF742FB06E0A07C0628D6
:1054B00003D1E7832846FFF75BFC2046FFF751FF47
:1054C0003046BDE8F04100F043BB70B50446002C07
:1054D0000ED0256A94F8310020F0080084F83100DD
:1054E000208D4FF0FF36B0F5107F04D2304627E410
:1054F0006FF0090024E415B3686808B102F0A3FF57
:105500005021284604F079FB02F0B1FF686000B337
:105510004422744902F0C4FE43227249686802F0D2
:1055200060FF22467049686802F08AFF2046FFF754
:1055300099FAA8B12046FFF7FCFE30460EE4502051
:1055400000F088F90546280001D02562D8E73046EA
:1055500004E4284600F009F900202062304622E4E5
:1055600014F8311F41F0080121701CE4F8B505461C
:10557000502000F06FF90446200041D0502104F083
:105580003CFB02F074FF6060A8B32E6A2C622846D0
:10559000FFF7E4F948BB012235212046FFF7C1F9A6
:1055A00008212046FFF7B6F9022239212046FFF7ED
:1055B000B8F9298D2046FFF7C2F92046FFF794F984
:1055C000A08BF03081B2606900F080FB4422454935
:1055D000606802F065FE00954323444A6169606893
:1055E00002F08DFE2846FFF771F9606802F02BFF8C
:1055F000002060602E622046BDE8F84000F0B5B89B
:10560000F8BD70B505462C6A002C1BD0A17C002685
:1056100005290FD004DC03290CD0042904D109E0AA
:105620000A2907D00D290DD0E6742846BDE8704040
:10563000FFF718BA284600F077FAE6742846BDE866
:10564000704073E4F6E5F8B505462C6A0C21204657
:10565000FFF701FA2846FFF781F90646300027D107
:10566000012235212046FFF75CF904212046FFF78F
:1056700051F9042232212046FFF753F9A06A03F0C2
:1056800051FA01462046FFF784FA2046FFF72CF92D
:10569000A08BF03081B2606900F018FB00954323C5
:1056A000124A6169606802F02AFE2846FFF70EF987
:1056B000E07C401CE07442F603104FF4FA71B0FB3A
:1056C000F1F0E0833046F8BD00280AD0026A002AD3
:1056D00007D0937C082B04D10968926A914200D1CB
:1056E000B1E77047C0BD0008F5530008C4BD00080D
:1056F00030B58C4C018862681144931C88420DD0EF
:105700000D795DB9A568A94208D0E5688D4200D140
:10571000E0600D8805800988851ACD5241881144C2
:1057200081420BD00D79002D08D1E568854200D16A
:10573000E16004880C800088891AC15230BD10B520
:105740007948784A20F0030050604FF420530380DA
:1057500000214180017100F52051916001240C71FC
:105760000B804B801470D06010BD00280ED06D49A6
:105770004A6890420AD38A68904207D208380022C9
:105780000271CA68904200D2C860B1E770472DE943
:10579000F04FC91C4FF6FC7211400C2900D20C21AD
:1057A0004FF4205C614502D90020BDE8F08FDFF89E
:1057B0007491D9F80440A042F7D3D9F80820904258
:1057C000F3D2A0F10802131B9BB21588EE1A083E13
:1057D0001FFA86FA514502D94FF00000E5E7E4D000
:1057E0002544504E95F804B04FF00008F7687668ED
:1057F000BBF1000F06F1020616D001F11405554564
:10580000D3D8194408318DB26119B94201D2C9F80F
:105810000C1081F8048014880C804B801580098856
:105820006145C2D08D53C0E7B5F800A019440831D6
:1058300089B2AF4202D16518C9F80C500C4484F803
:105840000480A4F800A06380118022886245ACD057
:105850009153AAE72DE9F04100280ED0C01C4FF665
:10586000FC7100EA01020C2A00D20C224FF42057EE
:10587000BA4204D90020BDE8F0810020FBE7294DA1
:10588000EE686B68F01A81B2C2F5205C38E05818F7
:1058900004799CBB0488641A083C94422FD3048882
:1058A00002F11408641A083C4FF0010C444515D36A
:1058B0000A44083294B21A194FF0000882F80480A2
:1058C000B0F80080A2F800805180048080F804C005
:1058D0001188B94204D09A1C8C5201E080F804C0AF
:1058E000B04209D1AA6802E009881944E960E96870
:1058F0000C790CB19142F7D10830BCE7FFE7595A57
:105900008C45C4DC0020B6E770B54843054680B23C
:10591000FFF7A0FF04461CB12946204604F06DF9AC
:10592000204670BDB8000020CF3E0020F0B500201A
:10593000401C80B20928FBD31C4820F00301002042
:105940001A4B1B4D0026273B05F1120443F820603B
:10595000002209E053F820700F6043F8201035F85A
:1059600010703944521C92B234F810709742F1D83A
:10597000401C80B20928E9D3F0BD0146092901D3B2
:1059800000207047094A273A52F821000028F8D031
:10599000036842F821307047002906D0034A273AAD
:1059A00052F820300B6042F8201070470767002043
:1059B00088BD0008002902D00968C1607047002135
:1059C000FBE7002902D00968816070470021FBE7EE
:1059D00070B505460C466968206888421ED0594853
:1059E00000680AE001686A68914205D1C668012131
:1059F00000F0EEFD304600E0C0680028F2D15248C9
:105A0000006809E007D0016829B16A68914202D1B3
:105A100044B121680160C0680028F3D12CB120682E
:105A2000686070BD4FF00001F4E74FF00000F7E749
:105A300070B5064614461D463046FFF7C9FF21469D
:105A40003046FFF7BEFF29463046BDE87040B1E75B
:105A50002DE9F04106AD0446E0CD00206060A06075
:105A6000E06084F8310020626062E561374D28789B
:105A700084F83400401C287027612046FFF7D8FFC7
:105A80002046B04710B10020BDE8F0816868206072
:105A90006C602046F8E72D4988607047002816D0D2
:105AA0002A4B5968814209D1016859600AE00A68A5
:105AB000824202D102680A6002E011460029F6D152
:105AC000002904D09968814201D10020E3E77047A2
:105AD00010B50146002905D088783038C2B21B487D
